{
    "contractName": "VestingWallet",
    "abi": [
        {
            "inputs": [],
            "stateMutability": "nonpayable",
            "type": "constructor"
        },
        {
            "anonymous": false,
            "inputs": [
                {
                    "indexed": true,
                    "internalType": "address",
                    "name": "previousOwner",
                    "type": "address"
                },
                {
                    "indexed": true,
                    "internalType": "address",
                    "name": "newOwner",
                    "type": "address"
                }
            ],
            "name": "OwnershipTransferred",
            "type": "event"
        },
        {
            "inputs": [
                {
                    "internalType": "address",
                    "name": "_address",
                    "type": "address"
                }
            ],
            "name": "addAllowedWallet",
            "outputs": [],
            "stateMutability": "nonpayable",
            "type": "function"
        },
        {
            "inputs": [
                {
                    "internalType": "uint256",
                    "name": "_month",
                    "type": "uint256"
                },
                {
                    "internalType": "address",
                    "name": "_destinationAddress",
                    "type": "address"
                },
                {
                    "internalType": "uint256",
                    "name": "_amount",
                    "type": "uint256"
                }
            ],
            "name": "addVestingScheduleEvent",
            "outputs": [],
            "stateMutability": "nonpayable",
            "type": "function"
        },
        {
            "inputs": [
                {
                    "internalType": "uint256",
                    "name": "",
                    "type": "uint256"
                }
            ],
            "name": "allowedWallets",
            "outputs": [
                {
                    "internalType": "address",
                    "name": "",
                    "type": "address"
                }
            ],
            "stateMutability": "view",
            "type": "function"
        },
        {
            "inputs": [],
            "name": "getAllowedWallets",
            "outputs": [
                {
                    "internalType": "address[]",
                    "name": "",
                    "type": "address[]"
                }
            ],
            "stateMutability": "view",
            "type": "function"
        },
        {
            "inputs": [],
            "name": "getVestingScheduleEvents",
            "outputs": [
                {
                    "components": [
                        {
                            "internalType": "uint256",
                            "name": "month",
                            "type": "uint256"
                        },
                        {
                            "internalType": "address",
                            "name": "destinationAddress",
                            "type": "address"
                        },
                        {
                            "internalType": "uint256",
                            "name": "amount",
                            "type": "uint256"
                        },
                        {
                            "internalType": "bool",
                            "name": "hasRun",
                            "type": "bool"
                        }
                    ],
                    "internalType": "struct VestingWallet.VestingScheduleEvent[]",
                    "name": "",
                    "type": "tuple[]"
                }
            ],
            "stateMutability": "view",
            "type": "function"
        },
        {
            "inputs": [
                {
                    "internalType": "address",
                    "name": "_address",
                    "type": "address"
                }
            ],
            "name": "isAddressInWithdrawalWhitelist",
            "outputs": [
                {
                    "internalType": "bool",
                    "name": "",
                    "type": "bool"
                }
            ],
            "stateMutability": "view",
            "type": "function"
        },
        {
            "inputs": [],
            "name": "isLocked",
            "outputs": [
                {
                    "internalType": "bool",
                    "name": "",
                    "type": "bool"
                }
            ],
            "stateMutability": "view",
            "type": "function"
        },
        {
            "inputs": [],
            "name": "isVestingScheduleLocked",
            "outputs": [
                {
                    "internalType": "bool",
                    "name": "",
                    "type": "bool"
                }
            ],
            "stateMutability": "view",
            "type": "function"
        },
        {
            "inputs": [],
            "name": "lockVestingSchedule",
            "outputs": [],
            "stateMutability": "nonpayable",
            "type": "function"
        },
        {
            "inputs": [],
            "name": "monthLengthDays",
            "outputs": [
                {
                    "internalType": "uint256",
                    "name": "",
                    "type": "uint256"
                }
            ],
            "stateMutability": "view",
            "type": "function"
        },
        {
            "inputs": [],
            "name": "owner",
            "outputs": [
                {
                    "internalType": "address",
                    "name": "",
                    "type": "address"
                }
            ],
            "stateMutability": "view",
            "type": "function"
        },
        {
            "inputs": [],
            "name": "renounceOwnership",
            "outputs": [],
            "stateMutability": "nonpayable",
            "type": "function"
        },
        {
            "inputs": [],
            "name": "resetVestingSchedule",
            "outputs": [],
            "stateMutability": "nonpayable",
            "type": "function"
        },
        {
            "inputs": [
                {
                    "internalType": "uint256",
                    "name": "_startTime",
                    "type": "uint256"
                }
            ],
            "name": "setStartPeriod",
            "outputs": [],
            "stateMutability": "nonpayable",
            "type": "function"
        },
        {
            "inputs": [
                {
                    "internalType": "address",
                    "name": "_token",
                    "type": "address"
                }
            ],
            "name": "setToken",
            "outputs": [],
            "stateMutability": "nonpayable",
            "type": "function"
        },
        {
            "inputs": [],
            "name": "startTime",
            "outputs": [
                {
                    "internalType": "uint256",
                    "name": "",
                    "type": "uint256"
                }
            ],
            "stateMutability": "view",
            "type": "function"
        },
        {
            "inputs": [],
            "name": "token",
            "outputs": [
                {
                    "internalType": "contract ERC20",
                    "name": "",
                    "type": "address"
                }
            ],
            "stateMutability": "view",
            "type": "function"
        },
        {
            "inputs": [
                {
                    "internalType": "address",
                    "name": "newOwner",
                    "type": "address"
                }
            ],
            "name": "transferOwnership",
            "outputs": [],
            "stateMutability": "nonpayable",
            "type": "function"
        },
        {
            "inputs": [
                {
                    "internalType": "uint256",
                    "name": "month",
                    "type": "uint256"
                }
            ],
            "name": "withdraw",
            "outputs": [],
            "stateMutability": "nonpayable",
            "type": "function"
        }
    ],
    "bytecode": "60806040526002805460ff191690556224ea0060035534801561002157600080fd5b5061002b3361003e565b426001556002805460ff1916905561008e565b600080546001600160a01b038381166001600160a01b0319831681178455604051919092169283917f8be0079c531659141344cd1fd0a4f28419497f9722a3daafe3b4186f6b6457e09190a35050565b610d6f8061009d6000396000f3fe608060405234801561001057600080fd5b50600436106101215760003560e01c80637fbb0fce116100ad578063d863168a11610071578063d863168a1461023e578063e1bd8a7914610251578063ef368c161461025c578063f2fde38b14610265578063fc0c546a1461027857600080fd5b80637fbb0fce146101c15780638da5cb5b146101d65780639a8a42c6146101fb578063a4e2d6341461020e578063c1c023de1461022b57600080fd5b80636844b516116100f45780636844b516146101695780636bc96f1b146101715780636eddc72814610184578063715018a6146101a257806378e97925146101aa57600080fd5b8063144fa6d7146101265780632455f6731461013b5780632e1a7d4d1461014e578063644d652414610161575b600080fd5b610139610134366004610b3f565b610290565b005b610139610149366004610b61565b6102ec565b61013961015c366004610b96565b610470565b610139610714565b61013961074d565b61013961017f366004610b96565b610764565b61018c610794565b6040516101999190610baf565b60405180910390f35b6101396107f6565b6101b360015481565b604051908152602001610199565b6101c9610808565b6040516101999190610bfc565b6000546001600160a01b03165b6040516001600160a01b039091168152602001610199565b610139610209366004610b3f565b610897565b60025461021b9060ff1681565b6040519015158152602001610199565b61021b610239366004610b3f565b610914565b6101e361024c366004610b96565b61097d565b60025460ff1661021b565b6101b360035481565b610139610273366004610b3f565b6109a7565b6002546101e39061010090046001600160a01b031681565b610298610a20565b60025460ff16156102c45760405162461bcd60e51b81526004016102bb90610c6b565b60405180910390fd5b600280546001600160a01b0390921661010002610100600160a81b0319909216919091179055565b6102f4610a20565b60025460ff16156103175760405162461bcd60e51b81526004016102bb90610c6b565b61032082610914565b15156001146103715760405162461bcd60e51b815260206004820152601760248201527f41646472657373206973206e6f7420616c6c6f7765642100000000000000000060448201526064016102bb565b604080516080810182529384526001600160a01b0392831660208501908152908401918252600060608501818152600480546001810182559281905295517f8a35acfbc15ff81a39ae7d344fd709f28e8600b4aa8c65c6b64bfe7fe36bd19b929096029182019590955590517f8a35acfbc15ff81a39ae7d344fd709f28e8600b4aa8c65c6b64bfe7fe36bd19c820180546001600160a01b0319169190941617909255517f8a35acfbc15ff81a39ae7d344fd709f28e8600b4aa8c65c6b64bfe7fe36bd19d82015590517f8a35acfbc15ff81a39ae7d344fd709f28e8600b4aa8c65c6b64bfe7fe36bd19e909101805460ff1916911515919091179055565b610478610a20565b60025460ff1615156001146104cf5760405162461bcd60e51b815260206004820152601b60248201527f5363686564756c65206973206e6f74206c6f636b65642079657421000000000060448201526064016102bb565b6003546104dc9082610cb8565b6001546104e99190610cd5565b42101561055e5760405162461bcd60e51b815260206004820152603960248201527f54686520737065636966696564206d6f6e7468732076657374696e672073636860448201527f6564756c65206973206e6f742072756e6e61626c65207965740000000000000060648201526084016102bb565b60005b60045481101561071057816004828154811061057f5761057f610ce8565b9060005260206000209060040201600001541480156105c55750600481815481106105ac576105ac610ce8565b600091825260209091206003600490920201015460ff16155b156106fe576001600482815481106105df576105df610ce8565b906000526020600020906004020160030160006101000a81548160ff021916908315150217905550600260019054906101000a90046001600160a01b03166001600160a01b031663a9059cbb6004838154811061063e5761063e610ce8565b906000526020600020906004020160010160009054906101000a90046001600160a01b03166004848154811061067657610676610ce8565b9060005260206000209060040201600201546040518363ffffffff1660e01b81526004016106b99291906001600160a01b03929092168252602082015260400190565b6020604051808303816000875af11580156106d8573d6000803e3d6000fd5b505050506040513d601f19601f820116820180604052508101906106fc9190610cfe565b505b8061070881610d20565b915050610561565b5050565b61071c610a20565b60025460ff161561073f5760405162461bcd60e51b81526004016102bb90610c6b565b61074b60046000610aca565b565b610755610a20565b6002805460ff19166001179055565b61076c610a20565b60025460ff161561078f5760405162461bcd60e51b81526004016102bb90610c6b565b600155565b606060058054806020026020016040519081016040528092919081815260200182805480156107ec57602002820191906000526020600020905b81546001600160a01b031681526001909101906020018083116107ce575b5050505050905090565b6107fe610a20565b61074b6000610a7a565b60606004805480602002602001604051908101604052809291908181526020016000905b8282101561088e5760008481526020908190206040805160808101825260048602909201805483526001808201546001600160a01b0316848601526002820154928401929092526003015460ff1615156060830152908352909201910161082c565b50505050905090565b61089f610a20565b60025460ff16156108c25760405162461bcd60e51b81526004016102bb90610c6b565b600580546001810182556000919091527f036b6384b5eca791c62761152d0c79bb0604c104a5fb6f4eb0703f3154bb3db00180546001600160a01b0319166001600160a01b0392909216919091179055565b6000805b60055481101561097457826001600160a01b03166005828154811061093f5761093f610ce8565b6000918252602090912001546001600160a01b0316036109625750600192915050565b8061096c81610d20565b915050610918565b50600092915050565b6005818154811061098d57600080fd5b6000918252602090912001546001600160a01b0316905081565b6109af610a20565b6001600160a01b038116610a145760405162461bcd60e51b815260206004820152602660248201527f4f776e61626c653a206e6577206f776e657220697320746865207a65726f206160448201526564647265737360d01b60648201526084016102bb565b610a1d81610a7a565b50565b6000546001600160a01b0316331461074b5760405162461bcd60e51b815260206004820181905260248201527f4f776e61626c653a2063616c6c6572206973206e6f7420746865206f776e657260448201526064016102bb565b600080546001600160a01b038381166001600160a01b0319831681178455604051919092169283917f8be0079c531659141344cd1fd0a4f28419497f9722a3daafe3b4186f6b6457e09190a35050565b5080546000825560040290600052602060002090810190610a1d91905b80821115610b1f5760008082556001820180546001600160a01b0319169055600282015560038101805460ff19169055600401610ae7565b5090565b80356001600160a01b0381168114610b3a57600080fd5b919050565b600060208284031215610b5157600080fd5b610b5a82610b23565b9392505050565b600080600060608486031215610b7657600080fd5b83359250610b8660208501610b23565b9150604084013590509250925092565b600060208284031215610ba857600080fd5b5035919050565b6020808252825182820181905260009190848201906040850190845b81811015610bf05783516001600160a01b031683529284019291840191600101610bcb565b50909695505050505050565b602080825282518282018190526000919060409081850190868401855b82811015610c5e57815180518552868101516001600160a01b031687860152858101518686015260609081015115159085015260809093019290850190600101610c19565b5091979650505050505050565b6020808252601b908201527f5363686564756c6520697320616c7265616479206c6f636b6564210000000000604082015260600190565b634e487b7160e01b600052601160045260246000fd5b8082028115828204841417610ccf57610ccf610ca2565b92915050565b80820180821115610ccf57610ccf610ca2565b634e487b7160e01b600052603260045260246000fd5b600060208284031215610d1057600080fd5b81518015158114610b5a57600080fd5b600060018201610d3257610d32610ca2565b506001019056fea2646970667358221220eef9ab0422de49b2611e6fff17e1ff53f9c46b51420cd415e1d38707dcd4392b64736f6c63430008110033",
    "sourcePath": "/Users/aaron/projects/dubs/contracts/VestingWallet.sol",
    "compiler": {
        "name": "solc",
        "version": "0.8.17+commit.8df45f5f"
    },
    "functionHashes": {
        "addAllowedWallet(address)": "9a8a42c6",
        "addVestingScheduleEvent(uint256,address,uint256)": "2455f673",
        "allowedWallets(uint256)": "d863168a",
        "getAllowedWallets()": "6eddc728",
        "getVestingScheduleEvents()": "7fbb0fce",
        "isAddressInWithdrawalWhitelist(address)": "c1c023de",
        "isLocked()": "a4e2d634",
        "isVestingScheduleLocked()": "e1bd8a79",
        "lockVestingSchedule()": "6844b516",
        "monthLengthDays()": "ef368c16",
        "owner()": "8da5cb5b",
        "renounceOwnership()": "715018a6",
        "resetVestingSchedule()": "644d6524",
        "setStartPeriod(uint256)": "6bc96f1b",
        "setToken(address)": "144fa6d7",
        "startTime()": "78e97925",
        "token()": "fc0c546a",
        "transferOwnership(address)": "f2fde38b",
        "withdraw(uint256)": "2e1a7d4d"
    },
    "gasEstimates": {
        "creation": {
            "codeDepositCost": "687800",
            "executionCost": "119209",
            "totalCost": "807009"
        },
        "external": {
            "addAllowedWallet(address)": "53164",
            "addVestingScheduleEvent(uint256,address,uint256)": "infinite",
            "allowedWallets(uint256)": "4636",
            "getAllowedWallets()": "infinite",
            "getVestingScheduleEvents()": "infinite",
            "isAddressInWithdrawalWhitelist(address)": "infinite",
            "isLocked()": "2399",
            "isVestingScheduleLocked()": "2348",
            "lockVestingSchedule()": "26555",
            "monthLengthDays()": "2361",
            "owner()": "2365",
            "renounceOwnership()": "infinite",
            "resetVestingSchedule()": "infinite",
            "setStartPeriod(uint256)": "26659",
            "setToken(address)": "28896",
            "startTime()": "2406",
            "token()": "2458",
            "transferOwnership(address)": "28421",
            "withdraw(uint256)": "infinite"
        }
    }
}