{
  "_format": "hh-sol-artifact-1",
  "contractName": "SafeWallet",
  "sourceName": "contracts/SafeWallet.sol",
  "abi": [
    {
      "inputs": [
        {
          "internalType": "address",
          "name": "_token",
          "type": "address"
        }
      ],
      "stateMutability": "nonpayable",
      "type": "constructor"
    },
    {
      "anonymous": false,
      "inputs": [
        {
          "indexed": true,
          "internalType": "address",
          "name": "previousOwner",
          "type": "address"
        },
        {
          "indexed": true,
          "internalType": "address",
          "name": "newOwner",
          "type": "address"
        }
      ],
      "name": "OwnershipTransferred",
      "type": "event"
    },
    {
      "inputs": [],
      "name": "advisorsWalletAddress",
      "outputs": [
        {
          "internalType": "address",
          "name": "",
          "type": "address"
        }
      ],
      "stateMutability": "view",
      "type": "function"
    },
    {
      "inputs": [
        {
          "internalType": "uint256",
          "name": "month",
          "type": "uint256"
        }
      ],
      "name": "executeWithdrawlForMonth",
      "outputs": [],
      "stateMutability": "nonpayable",
      "type": "function"
    },
    {
      "inputs": [
        {
          "internalType": "uint256",
          "name": "",
          "type": "uint256"
        }
      ],
      "name": "hasWithdrawalBeenExecutedForMonth",
      "outputs": [
        {
          "internalType": "bool",
          "name": "",
          "type": "bool"
        }
      ],
      "stateMutability": "view",
      "type": "function"
    },
    {
      "inputs": [],
      "name": "ingameSalesAddress",
      "outputs": [
        {
          "internalType": "address",
          "name": "",
          "type": "address"
        }
      ],
      "stateMutability": "view",
      "type": "function"
    },
    {
      "inputs": [
        {
          "internalType": "address",
          "name": "_address",
          "type": "address"
        }
      ],
      "name": "isAddressInWithdrawalWhitelist",
      "outputs": [
        {
          "internalType": "bool",
          "name": "",
          "type": "bool"
        }
      ],
      "stateMutability": "view",
      "type": "function"
    },
    {
      "inputs": [],
      "name": "isLocked",
      "outputs": [
        {
          "internalType": "bool",
          "name": "",
          "type": "bool"
        }
      ],
      "stateMutability": "view",
      "type": "function"
    },
    {
      "inputs": [],
      "name": "isVestingScheduleLocked",
      "outputs": [
        {
          "internalType": "bool",
          "name": "",
          "type": "bool"
        }
      ],
      "stateMutability": "view",
      "type": "function"
    },
    {
      "inputs": [],
      "name": "liquidityWalletAddress",
      "outputs": [
        {
          "internalType": "address",
          "name": "",
          "type": "address"
        }
      ],
      "stateMutability": "view",
      "type": "function"
    },
    {
      "inputs": [],
      "name": "lockVestingSchedule",
      "outputs": [],
      "stateMutability": "nonpayable",
      "type": "function"
    },
    {
      "inputs": [],
      "name": "maReserveWalletAddress",
      "outputs": [
        {
          "internalType": "address",
          "name": "",
          "type": "address"
        }
      ],
      "stateMutability": "view",
      "type": "function"
    },
    {
      "inputs": [],
      "name": "marketingWalletAddress",
      "outputs": [
        {
          "internalType": "address",
          "name": "",
          "type": "address"
        }
      ],
      "stateMutability": "view",
      "type": "function"
    },
    {
      "inputs": [],
      "name": "owner",
      "outputs": [
        {
          "internalType": "address",
          "name": "",
          "type": "address"
        }
      ],
      "stateMutability": "view",
      "type": "function"
    },
    {
      "inputs": [],
      "name": "p2eRewardsWalletAddress",
      "outputs": [
        {
          "internalType": "address",
          "name": "",
          "type": "address"
        }
      ],
      "stateMutability": "view",
      "type": "function"
    },
    {
      "inputs": [],
      "name": "preseedWalletAddress",
      "outputs": [
        {
          "internalType": "address",
          "name": "",
          "type": "address"
        }
      ],
      "stateMutability": "view",
      "type": "function"
    },
    {
      "inputs": [],
      "name": "privateWalletAddress",
      "outputs": [
        {
          "internalType": "address",
          "name": "",
          "type": "address"
        }
      ],
      "stateMutability": "view",
      "type": "function"
    },
    {
      "inputs": [],
      "name": "renounceOwnership",
      "outputs": [],
      "stateMutability": "nonpayable",
      "type": "function"
    },
    {
      "inputs": [
        {
          "internalType": "uint256",
          "name": "month",
          "type": "uint256"
        }
      ],
      "name": "runMonthlyWithdrawal",
      "outputs": [],
      "stateMutability": "nonpayable",
      "type": "function"
    },
    {
      "inputs": [],
      "name": "seedWalletAddress",
      "outputs": [
        {
          "internalType": "address",
          "name": "",
          "type": "address"
        }
      ],
      "stateMutability": "view",
      "type": "function"
    },
    {
      "inputs": [
        {
          "internalType": "uint256",
          "name": "_startTime",
          "type": "uint256"
        }
      ],
      "name": "setStartPeriod",
      "outputs": [],
      "stateMutability": "nonpayable",
      "type": "function"
    },
    {
      "inputs": [
        {
          "internalType": "address",
          "name": "_token",
          "type": "address"
        }
      ],
      "name": "setToken",
      "outputs": [],
      "stateMutability": "nonpayable",
      "type": "function"
    },
    {
      "inputs": [
        {
          "internalType": "uint256",
          "name": "_month",
          "type": "uint256"
        },
        {
          "internalType": "address",
          "name": "_destinationAddress",
          "type": "address"
        },
        {
          "internalType": "uint256",
          "name": "_amount",
          "type": "uint256"
        }
      ],
      "name": "setVestingPeriod",
      "outputs": [],
      "stateMutability": "nonpayable",
      "type": "function"
    },
    {
      "inputs": [],
      "name": "stakingRewardsWalletAddress",
      "outputs": [
        {
          "internalType": "address",
          "name": "",
          "type": "address"
        }
      ],
      "stateMutability": "view",
      "type": "function"
    },
    {
      "inputs": [],
      "name": "startTime",
      "outputs": [
        {
          "internalType": "uint256",
          "name": "",
          "type": "uint256"
        }
      ],
      "stateMutability": "view",
      "type": "function"
    },
    {
      "inputs": [],
      "name": "teamWalletAddress",
      "outputs": [
        {
          "internalType": "address",
          "name": "",
          "type": "address"
        }
      ],
      "stateMutability": "view",
      "type": "function"
    },
    {
      "inputs": [],
      "name": "token",
      "outputs": [
        {
          "internalType": "contract ERC20",
          "name": "",
          "type": "address"
        }
      ],
      "stateMutability": "view",
      "type": "function"
    },
    {
      "inputs": [
        {
          "internalType": "address",
          "name": "newOwner",
          "type": "address"
        }
      ],
      "name": "transferOwnership",
      "outputs": [],
      "stateMutability": "nonpayable",
      "type": "function"
    },
    {
      "inputs": [],
      "name": "treasuryWalletAddress",
      "outputs": [
        {
          "internalType": "address",
          "name": "",
          "type": "address"
        }
      ],
      "stateMutability": "view",
      "type": "function"
    },
    {
      "inputs": [
        {
          "internalType": "uint256",
          "name": "",
          "type": "uint256"
        }
      ],
      "name": "wallets",
      "outputs": [
        {
          "internalType": "address",
          "name": "",
          "type": "address"
        }
      ],
      "stateMutability": "view",
      "type": "function"
    }
  ],
  "bytecode": "0x6080604052604051806101800160405280600073ffffffffffffffffffffffffffffffffffffffff1673ffffffffffffffffffffffffffffffffffffffff168152602001600073ffffffffffffffffffffffffffffffffffffffff1673ffffffffffffffffffffffffffffffffffffffff168152602001600073ffffffffffffffffffffffffffffffffffffffff1673ffffffffffffffffffffffffffffffffffffffff168152602001600073ffffffffffffffffffffffffffffffffffffffff1673ffffffffffffffffffffffffffffffffffffffff168152602001600073ffffffffffffffffffffffffffffffffffffffff1673ffffffffffffffffffffffffffffffffffffffff168152602001600073ffffffffffffffffffffffffffffffffffffffff1673ffffffffffffffffffffffffffffffffffffffff168152602001600073ffffffffffffffffffffffffffffffffffffffff1673ffffffffffffffffffffffffffffffffffffffff168152602001600073ffffffffffffffffffffffffffffffffffffffff1673ffffffffffffffffffffffffffffffffffffffff168152602001600073ffffffffffffffffffffffffffffffffffffffff1673ffffffffffffffffffffffffffffffffffffffff168152602001600073ffffffffffffffffffffffffffffffffffffffff1673ffffffffffffffffffffffffffffffffffffffff168152602001600073ffffffffffffffffffffffffffffffffffffffff1673ffffffffffffffffffffffffffffffffffffffff168152602001600073ffffffffffffffffffffffffffffffffffffffff1673ffffffffffffffffffffffffffffffffffffffff16815250600490600c6200028492919062000bc6565b506004600081548110620002c1577f4e487b7100000000000000000000000000000000000000000000000000000000600052603260045260246000fd5b9060005260206000200160009054906101000a900473ffffffffffffffffffffffffffffffffffffffff16600560006101000a81548173ffffffffffffffffffffffffffffffffffffffff021916908373ffffffffffffffffffffffffffffffffffffffff160217905550600460018154811062000368577f4e487b7100000000000000000000000000000000000000000000000000000000600052603260045260246000fd5b9060005260206000200160009054906101000a900473ffffffffffffffffffffffffffffffffffffffff16600660006101000a81548173ffffffffffffffffffffffffffffffffffffffff021916908373ffffffffffffffffffffffffffffffffffffffff16021790555060046002815481106200040f577f4e487b7100000000000000000000000000000000000000000000000000000000600052603260045260246000fd5b9060005260206000200160009054906101000a900473ffffffffffffffffffffffffffffffffffffffff16600760006101000a81548173ffffffffffffffffffffffffffffffffffffffff021916908373ffffffffffffffffffffffffffffffffffffffff1602179055506004600381548110620004b6577f4e487b7100000000000000000000000000000000000000000000000000000000600052603260045260246000fd5b9060005260206000200160009054906101000a900473ffffffffffffffffffffffffffffffffffffffff16600860006101000a81548173ffffffffffffffffffffffffffffffffffffffff021916908373ffffffffffffffffffffffffffffffffffffffff160217905550600480815481106200055c577f4e487b7100000000000000000000000000000000000000000000000000000000600052603260045260246000fd5b9060005260206000200160009054906101000a900473ffffffffffffffffffffffffffffffffffffffff16600960006101000a81548173ffffffffffffffffffffffffffffffffffffffff021916908373ffffffffffffffffffffffffffffffffffffffff160217905550600460058154811062000603577f4e487b7100000000000000000000000000000000000000000000000000000000600052603260045260246000fd5b9060005260206000200160009054906101000a900473ffffffffffffffffffffffffffffffffffffffff16600a60006101000a81548173ffffffffffffffffffffffffffffffffffffffff021916908373ffffffffffffffffffffffffffffffffffffffff1602179055506004600681548110620006aa577f4e487b7100000000000000000000000000000000000000000000000000000000600052603260045260246000fd5b9060005260206000200160009054906101000a900473ffffffffffffffffffffffffffffffffffffffff16600b60006101000a81548173ffffffffffffffffffffffffffffffffffffffff021916908373ffffffffffffffffffffffffffffffffffffffff160217905550600460078154811062000751577f4e487b7100000000000000000000000000000000000000000000000000000000600052603260045260246000fd5b9060005260206000200160009054906101000a900473ffffffffffffffffffffffffffffffffffffffff16600c60006101000a81548173ffffffffffffffffffffffffffffffffffffffff021916908373ffffffffffffffffffffffffffffffffffffffff1602179055506004600881548110620007f8577f4e487b7100000000000000000000000000000000000000000000000000000000600052603260045260246000fd5b9060005260206000200160009054906101000a900473ffffffffffffffffffffffffffffffffffffffff16600d60006101000a81548173ffffffffffffffffffffffffffffffffffffffff021916908373ffffffffffffffffffffffffffffffffffffffff16021790555060046009815481106200089f577f4e487b7100000000000000000000000000000000000000000000000000000000600052603260045260246000fd5b9060005260206000200160009054906101000a900473ffffffffffffffffffffffffffffffffffffffff16600e60006101000a81548173ffffffffffffffffffffffffffffffffffffffff021916908373ffffffffffffffffffffffffffffffffffffffff1602179055506004600a8154811062000946577f4e487b7100000000000000000000000000000000000000000000000000000000600052603260045260246000fd5b9060005260206000200160009054906101000a900473ffffffffffffffffffffffffffffffffffffffff16600f60006101000a81548173ffffffffffffffffffffffffffffffffffffffff021916908373ffffffffffffffffffffffffffffffffffffffff1602179055506004600b81548110620009ed577f4e487b7100000000000000000000000000000000000000000000000000000000600052603260045260246000fd5b9060005260206000200160009054906101000a900473ffffffffffffffffffffffffffffffffffffffff16601060006101000a81548173ffffffffffffffffffffffffffffffffffffffff021916908373ffffffffffffffffffffffffffffffffffffffff16021790555034801562000a6557600080fd5b506040516200257a3803806200257a833981810160405281019062000a8b919062000c8b565b62000aab62000a9f62000afa60201b60201c565b62000b0260201b60201c565b80600260016101000a81548173ffffffffffffffffffffffffffffffffffffffff021916908373ffffffffffffffffffffffffffffffffffffffff160217905550426001819055505062000d05565b600033905090565b60008060009054906101000a900473ffffffffffffffffffffffffffffffffffffffff169050816000806101000a81548173ffffffffffffffffffffffffffffffffffffffff021916908373ffffffffffffffffffffffffffffffffffffffff1602179055508173ffffffffffffffffffffffffffffffffffffffff168173ffffffffffffffffffffffffffffffffffffffff167f8be0079c531659141344cd1fd0a4f28419497f9722a3daafe3b4186f6b6457e060405160405180910390a35050565b82805482825590600052602060002090810192821562000c42579160200282015b8281111562000c415782518260006101000a81548173ffffffffffffffffffffffffffffffffffffffff021916908373ffffffffffffffffffffffffffffffffffffffff1602179055509160200191906001019062000be7565b5b50905062000c51919062000c55565b5090565b5b8082111562000c7057600081600090555060010162000c56565b5090565b60008151905062000c858162000ceb565b92915050565b60006020828403121562000c9e57600080fd5b600062000cae8482850162000c74565b91505092915050565b600062000cc48262000ccb565b9050919050565b600073ffffffffffffffffffffffffffffffffffffffff82169050919050565b62000cf68162000cb7565b811462000d0257600080fd5b50565b6118658062000d156000396000f3fe608060405234801561001057600080fd5b50600436106101635760003560e01c80638eb83f25116100c95780638eb83f25146102f05780639b4610b51461030e578063a4e2d6341461032a578063a5ee715914610348578063a6bfb1ea14610364578063b1c0b91214610382578063c1c023de146103a0578063c37d91d7146103d0578063c6a8de27146103ee578063ce833aca1461040c578063d158272d1461043c578063e1bd8a791461045a578063f2fde38b14610478578063fc0c546a1461049457610163565b80627e3efa146101685780631245e34714610186578063144fa6d7146101a4578063184e3132146101c057806339dc875c146101de57806351cee1f0146101fa5780635db34bfa146102185780636844b516146102365780636bc96f1b14610240578063715018a61461025c57806378e97925146102665780637ad71f72146102845780637b07e4ea146102b45780638da5cb5b146102d2575b600080fd5b6101706104b2565b60405161017d919061133f565b60405180910390f35b61018e6104d8565b60405161019b919061133f565b60405180910390f35b6101be60048036038101906101b99190611144565b6104fe565b005b6101c8610598565b6040516101d5919061133f565b60405180910390f35b6101f860048036038101906101f391906111bf565b6105be565b005b610202610767565b60405161020f919061133f565b60405180910390f35b61022061078d565b60405161022d919061133f565b60405180910390f35b61023e6107b3565b005b61025a60048036038101906102559190611196565b6107d8565b005b610264610838565b005b61026e61084c565b60405161027b9190611499565b60405180910390f35b61029e60048036038101906102999190611196565b610852565b6040516102ab919061133f565b60405180910390f35b6102bc610891565b6040516102c9919061133f565b60405180910390f35b6102da6108b7565b6040516102e7919061133f565b60405180910390f35b6102f86108e0565b604051610305919061133f565b60405180910390f35b61032860048036038101906103239190611196565b610906565b005b610332610974565b60405161033f9190611383565b60405180910390f35b610362600480360381019061035d9190611196565b610987565b005b61036c610d33565b604051610379919061133f565b60405180910390f35b61038a610d59565b604051610397919061133f565b60405180910390f35b6103ba60048036038101906103b59190611144565b610d7f565b6040516103c79190611383565b60405180910390f35b6103d8610e54565b6040516103e5919061133f565b60405180910390f35b6103f6610e7a565b604051610403919061133f565b60405180910390f35b61042660048036038101906104219190611196565b610ea0565b6040516104339190611383565b60405180910390f35b610444610ed4565b604051610451919061133f565b60405180910390f35b610462610efa565b60405161046f9190611383565b60405180910390f35b610492600480360381019061048d9190611144565b610f11565b005b61049c610f95565b6040516104a9919061139e565b60405180910390f35b600a60009054906101000a900473ffffffffffffffffffffffffffffffffffffffff1681565b600f60009054906101000a900473ffffffffffffffffffffffffffffffffffffffff1681565b610506610fbb565b60001515610512610efa565b151514610554576040517f08c379a000000000000000000000000000000000000000000000000000000000815260040161054b90611459565b60405180910390fd5b80600260016101000a81548173ffffffffffffffffffffffffffffffffffffffff021916908373ffffffffffffffffffffffffffffffffffffffff16021790555050565b600e60009054906101000a900473ffffffffffffffffffffffffffffffffffffffff1681565b6105c6610fbb565b600015156105d2610efa565b151514610614576040517f08c379a000000000000000000000000000000000000000000000000000000000815260040161060b90611459565b60405180910390fd5b60005b60038054905081101561067f5761062d83610d7f565b61066c576040517f08c379a000000000000000000000000000000000000000000000000000000000815260040161066390611439565b60405180910390fd5b8080610677906115e1565b915050610617565b50600360405180608001604052808581526020018473ffffffffffffffffffffffffffffffffffffffff1681526020018381526020016000151581525090806001815401808255809150506001900390600052602060002090600402016000909190919091506000820151816000015560208201518160010160006101000a81548173ffffffffffffffffffffffffffffffffffffffff021916908373ffffffffffffffffffffffffffffffffffffffff1602179055506040820151816002015560608201518160030160006101000a81548160ff0219169083151502179055505050505050565b600860009054906101000a900473ffffffffffffffffffffffffffffffffffffffff1681565b600560009054906101000a900473ffffffffffffffffffffffffffffffffffffffff1681565b6107bb610fbb565b6001600260006101000a81548160ff021916908315150217905550565b6107e0610fbb565b600015156107ec610efa565b15151461082e576040517f08c379a000000000000000000000000000000000000000000000000000000000815260040161082590611459565b60405180910390fd5b8060018190555050565b610840610fbb565b61084a6000611039565b565b60015481565b6004818154811061086257600080fd5b906000526020600020016000915054906101000a900473ffffffffffffffffffffffffffffffffffffffff1681565b600660009054906101000a900473ffffffffffffffffffffffffffffffffffffffff1681565b60008060009054906101000a900473ffffffffffffffffffffffffffffffffffffffff16905090565b600b60009054906101000a900473ffffffffffffffffffffffffffffffffffffffff1681565b61090e610fbb565b60006224ea008261091f919061151b565b60015461092c91906114c5565b9050428110610970576040517f08c379a0000000000000000000000000000000000000000000000000000000008152600401610967906113f9565b60405180910390fd5b5050565b600260009054906101000a900460ff1681565b61098f610fbb565b6001151561099b610efa565b1515146109dd576040517f08c379a00000000000000000000000000000000000000000000000000000000081526004016109d490611479565b60405180910390fd5b60005b600380549050811015610d2f5762278d0060038281548110610a2b577f4e487b7100000000000000000000000000000000000000000000000000000000600052603260045260246000fd5b906000526020600020906004020160000154610a47919061151b565b600154610a5491906114c5565b421015610a96576040517f08c379a0000000000000000000000000000000000000000000000000000000008152600401610a8d906113d9565b60405180910390fd5b8160038281548110610ad1577f4e487b7100000000000000000000000000000000000000000000000000000000600052603260045260246000fd5b906000526020600020906004020160000154148015610b4c57506000151560038281548110610b29577f4e487b7100000000000000000000000000000000000000000000000000000000600052603260045260246000fd5b906000526020600020906004020160030160009054906101000a900460ff161515145b15610d1c57600160038281548110610b8d577f4e487b7100000000000000000000000000000000000000000000000000000000600052603260045260246000fd5b906000526020600020906004020160030160006101000a81548160ff021916908315150217905550600260019054906101000a900473ffffffffffffffffffffffffffffffffffffffff1673ffffffffffffffffffffffffffffffffffffffff1663a9059cbb60038381548110610c2d577f4e487b7100000000000000000000000000000000000000000000000000000000600052603260045260246000fd5b906000526020600020906004020160010160009054906101000a900473ffffffffffffffffffffffffffffffffffffffff1660038481548110610c99577f4e487b7100000000000000000000000000000000000000000000000000000000600052603260045260246000fd5b9060005260206000209060040201600201546040518363ffffffff1660e01b8152600401610cc892919061135a565b602060405180830381600087803b158015610ce257600080fd5b505af1158015610cf6573d6000803e3d6000fd5b505050506040513d601f19601f82011682018060405250810190610d1a919061116d565b505b8080610d27906115e1565b9150506109e0565b5050565b601060009054906101000a900473ffffffffffffffffffffffffffffffffffffffff1681565b600d60009054906101000a900473ffffffffffffffffffffffffffffffffffffffff1681565b600080600090505b600480549050811015610e49578273ffffffffffffffffffffffffffffffffffffffff1660048281548110610de5577f4e487b7100000000000000000000000000000000000000000000000000000000600052603260045260246000fd5b9060005260206000200160009054906101000a900473ffffffffffffffffffffffffffffffffffffffff1673ffffffffffffffffffffffffffffffffffffffff161415610e36576001915050610e4f565b8080610e41906115e1565b915050610d87565b50600090505b919050565b600960009054906101000a900473ffffffffffffffffffffffffffffffffffffffff1681565b600760009054906101000a900473ffffffffffffffffffffffffffffffffffffffff1681565b60118181548110610eb057600080fd5b9060005260206000209060209182820401919006915054906101000a900460ff1681565b600c60009054906101000a900473ffffffffffffffffffffffffffffffffffffffff1681565b6000600260009054906101000a900460ff16905090565b610f19610fbb565b600073ffffffffffffffffffffffffffffffffffffffff168173ffffffffffffffffffffffffffffffffffffffff161415610f89576040517f08c379a0000000000000000000000000000000000000000000000000000000008152600401610f80906113b9565b60405180910390fd5b610f9281611039565b50565b600260019054906101000a900473ffffffffffffffffffffffffffffffffffffffff1681565b610fc36110fd565b73ffffffffffffffffffffffffffffffffffffffff16610fe16108b7565b73ffffffffffffffffffffffffffffffffffffffff1614611037576040517f08c379a000000000000000000000000000000000000000000000000000000000815260040161102e90611419565b60405180910390fd5b565b60008060009054906101000a900473ffffffffffffffffffffffffffffffffffffffff169050816000806101000a81548173ffffffffffffffffffffffffffffffffffffffff021916908373ffffffffffffffffffffffffffffffffffffffff1602179055508173ffffffffffffffffffffffffffffffffffffffff168173ffffffffffffffffffffffffffffffffffffffff167f8be0079c531659141344cd1fd0a4f28419497f9722a3daafe3b4186f6b6457e060405160405180910390a35050565b600033905090565b600081359050611114816117ea565b92915050565b60008151905061112981611801565b92915050565b60008135905061113e81611818565b92915050565b60006020828403121561115657600080fd5b600061116484828501611105565b91505092915050565b60006020828403121561117f57600080fd5b600061118d8482850161111a565b91505092915050565b6000602082840312156111a857600080fd5b60006111b68482850161112f565b91505092915050565b6000806000606084860312156111d457600080fd5b60006111e28682870161112f565b93505060206111f386828701611105565b92505060406112048682870161112f565b9150509250925092565b61121781611575565b82525050565b61122681611587565b82525050565b611235816115bd565b82525050565b60006112486026836114b4565b915061125382611659565b604082019050919050565b600061126b6021836114b4565b9150611276826116a8565b604082019050919050565b600061128e6024836114b4565b9150611299826116f7565b604082019050919050565b60006112b16020836114b4565b91506112bc82611746565b602082019050919050565b60006112d46020836114b4565b91506112df8261176f565b602082019050919050565b60006112f7601b836114b4565b915061130282611798565b602082019050919050565b600061131a601b836114b4565b9150611325826117c1565b602082019050919050565b611339816115b3565b82525050565b6000602082019050611354600083018461120e565b92915050565b600060408201905061136f600083018561120e565b61137c6020830184611330565b9392505050565b6000602082019050611398600083018461121d565b92915050565b60006020820190506113b3600083018461122c565b92915050565b600060208201905081810360008301526113d28161123b565b9050919050565b600060208201905081810360008301526113f28161125e565b9050919050565b6000602082019050818103600083015261141281611281565b9050919050565b60006020820190508181036000830152611432816112a4565b9050919050565b60006020820190508181036000830152611452816112c7565b9050919050565b60006020820190508181036000830152611472816112ea565b9050919050565b600060208201905081810360008301526114928161130d565b9050919050565b60006020820190506114ae6000830184611330565b92915050565b600082825260208201905092915050565b60006114d0826115b3565b91506114db836115b3565b9250827fffffffffffffffffffffffffffffffffffffffffffffffffffffffffffffffff038211156115105761150f61162a565b5b828201905092915050565b6000611526826115b3565b9150611531836115b3565b9250817fffffffffffffffffffffffffffffffffffffffffffffffffffffffffffffffff048311821515161561156a5761156961162a565b5b828202905092915050565b600061158082611593565b9050919050565b60008115159050919050565b600073ffffffffffffffffffffffffffffffffffffffff82169050919050565b6000819050919050565b60006115c8826115cf565b9050919050565b60006115da82611593565b9050919050565b60006115ec826115b3565b91507fffffffffffffffffffffffffffffffffffffffffffffffffffffffffffffffff82141561161f5761161e61162a565b5b600182019050919050565b7f4e487b7100000000000000000000000000000000000000000000000000000000600052601160045260246000fd5b7f4f776e61626c653a206e6577206f776e657220697320746865207a65726f206160008201527f6464726573730000000000000000000000000000000000000000000000000000602082015250565b7f56657374696e6720706572696f6420686173206e6f742070617373656420796560008201527f7400000000000000000000000000000000000000000000000000000000000000602082015250565b7f54686520737065636966696564206d6f6e746820697320696e2074686520667560008201527f7475726500000000000000000000000000000000000000000000000000000000602082015250565b7f4f776e61626c653a2063616c6c6572206973206e6f7420746865206f776e6572600082015250565b7f44657374696e6174696f6e206973206e6f7420696e2077686974656c69737421600082015250565b7f5363686564756c6520697320616c7265616479206c6f636b6564210000000000600082015250565b7f5363686564756c65206973206e6f74206c6f636b656420796574210000000000600082015250565b6117f381611575565b81146117fe57600080fd5b50565b61180a81611587565b811461181557600080fd5b50565b611821816115b3565b811461182c57600080fd5b5056fea2646970667358221220ec03123d6f5e3c71fb5011af89743e6eacaeb1925d5138cfc7465c16fab437c964736f6c63430008040033",
  "linkReferences": {},
  "deployedLinkReferences": {}
}