{
  "_format": "hh-sol-artifact-1",
  "contractName": "SafeWallet",
  "sourceName": "contracts/SafeWallet.sol",
  "abi": [
    {
      "inputs": [],
      "stateMutability": "nonpayable",
      "type": "constructor"
    },
    {
      "anonymous": false,
      "inputs": [
        {
          "indexed": true,
          "internalType": "address",
          "name": "previousOwner",
          "type": "address"
        },
        {
          "indexed": true,
          "internalType": "address",
          "name": "newOwner",
          "type": "address"
        }
      ],
      "name": "OwnershipTransferred",
      "type": "event"
    },
    {
      "inputs": [
        {
          "internalType": "address",
          "name": "_address",
          "type": "address"
        }
      ],
      "name": "addAllowedWallet",
      "outputs": [],
      "stateMutability": "nonpayable",
      "type": "function"
    },
    {
      "inputs": [
        {
          "internalType": "uint256",
          "name": "_month",
          "type": "uint256"
        },
        {
          "internalType": "address",
          "name": "_destinationAddress",
          "type": "address"
        },
        {
          "internalType": "uint256",
          "name": "_amount",
          "type": "uint256"
        }
      ],
      "name": "addVestingScheduleEvent",
      "outputs": [],
      "stateMutability": "nonpayable",
      "type": "function"
    },
    {
      "inputs": [
        {
          "internalType": "uint256",
          "name": "",
          "type": "uint256"
        }
      ],
      "name": "allowedWallets",
      "outputs": [
        {
          "internalType": "address",
          "name": "",
          "type": "address"
        }
      ],
      "stateMutability": "view",
      "type": "function"
    },
    {
      "inputs": [],
      "name": "getAllowedWallets",
      "outputs": [
        {
          "internalType": "address[]",
          "name": "",
          "type": "address[]"
        }
      ],
      "stateMutability": "view",
      "type": "function"
    },
    {
      "inputs": [],
      "name": "getVestingScheduleEvents",
      "outputs": [
        {
          "components": [
            {
              "internalType": "uint256",
              "name": "month",
              "type": "uint256"
            },
            {
              "internalType": "address",
              "name": "destinationAddress",
              "type": "address"
            },
            {
              "internalType": "uint256",
              "name": "amount",
              "type": "uint256"
            },
            {
              "internalType": "bool",
              "name": "hasRun",
              "type": "bool"
            }
          ],
          "internalType": "struct SafeWallet.VestingScheduleEvent[]",
          "name": "",
          "type": "tuple[]"
        }
      ],
      "stateMutability": "view",
      "type": "function"
    },
    {
      "inputs": [
        {
          "internalType": "uint256",
          "name": "",
          "type": "uint256"
        }
      ],
      "name": "hasWithdrawalBeenExecutedForMonth",
      "outputs": [
        {
          "internalType": "bool",
          "name": "",
          "type": "bool"
        }
      ],
      "stateMutability": "view",
      "type": "function"
    },
    {
      "inputs": [
        {
          "internalType": "address",
          "name": "_address",
          "type": "address"
        }
      ],
      "name": "isAddressInWithdrawalWhitelist",
      "outputs": [
        {
          "internalType": "bool",
          "name": "",
          "type": "bool"
        }
      ],
      "stateMutability": "view",
      "type": "function"
    },
    {
      "inputs": [],
      "name": "isLocked",
      "outputs": [
        {
          "internalType": "bool",
          "name": "",
          "type": "bool"
        }
      ],
      "stateMutability": "view",
      "type": "function"
    },
    {
      "inputs": [],
      "name": "isVestingScheduleLocked",
      "outputs": [
        {
          "internalType": "bool",
          "name": "",
          "type": "bool"
        }
      ],
      "stateMutability": "view",
      "type": "function"
    },
    {
      "inputs": [],
      "name": "lockVestingSchedule",
      "outputs": [],
      "stateMutability": "nonpayable",
      "type": "function"
    },
    {
      "inputs": [],
      "name": "monthLengthDays",
      "outputs": [
        {
          "internalType": "uint256",
          "name": "",
          "type": "uint256"
        }
      ],
      "stateMutability": "view",
      "type": "function"
    },
    {
      "inputs": [],
      "name": "owner",
      "outputs": [
        {
          "internalType": "address",
          "name": "",
          "type": "address"
        }
      ],
      "stateMutability": "view",
      "type": "function"
    },
    {
      "inputs": [],
      "name": "renounceOwnership",
      "outputs": [],
      "stateMutability": "nonpayable",
      "type": "function"
    },
    {
      "inputs": [
        {
          "internalType": "uint256",
          "name": "month",
          "type": "uint256"
        }
      ],
      "name": "runMonthlyWithdrawal",
      "outputs": [],
      "stateMutability": "nonpayable",
      "type": "function"
    },
    {
      "inputs": [
        {
          "internalType": "uint256",
          "name": "_startTime",
          "type": "uint256"
        }
      ],
      "name": "setStartPeriod",
      "outputs": [],
      "stateMutability": "nonpayable",
      "type": "function"
    },
    {
      "inputs": [
        {
          "internalType": "address",
          "name": "_token",
          "type": "address"
        }
      ],
      "name": "setToken",
      "outputs": [],
      "stateMutability": "nonpayable",
      "type": "function"
    },
    {
      "inputs": [],
      "name": "startTime",
      "outputs": [
        {
          "internalType": "uint256",
          "name": "",
          "type": "uint256"
        }
      ],
      "stateMutability": "view",
      "type": "function"
    },
    {
      "inputs": [],
      "name": "token",
      "outputs": [
        {
          "internalType": "contract ERC20",
          "name": "",
          "type": "address"
        }
      ],
      "stateMutability": "view",
      "type": "function"
    },
    {
      "inputs": [
        {
          "internalType": "address",
          "name": "newOwner",
          "type": "address"
        }
      ],
      "name": "transferOwnership",
      "outputs": [],
      "stateMutability": "nonpayable",
      "type": "function"
    }
  ],
  "bytecode": "0x60806040526000600260006101000a81548160ff02191690831515021790555062278d0060035534801561003257600080fd5b5061004f61004461007660201b60201c565b61007e60201b60201c565b426001819055506000600260006101000a81548160ff021916908315150217905550610142565b600033905090565b60008060009054906101000a900473ffffffffffffffffffffffffffffffffffffffff169050816000806101000a81548173ffffffffffffffffffffffffffffffffffffffff021916908373ffffffffffffffffffffffffffffffffffffffff1602179055508173ffffffffffffffffffffffffffffffffffffffff168173ffffffffffffffffffffffffffffffffffffffff167f8be0079c531659141344cd1fd0a4f28419497f9722a3daafe3b4186f6b6457e060405160405180910390a35050565b611884806101516000396000f3fe608060405234801561001057600080fd5b50600436106101015760003560e01c80639a8a42c61161009d5780639a8a42c6146101e6578063a4e2d63414610202578063a5ee715914610220578063c1c023de1461023c578063ce833aca1461026c578063d863168a1461029c578063e1bd8a79146102cc578063ef368c16146102ea578063f2fde38b14610308578063fc0c546a1461032457610101565b8063144fa6d7146101065780632455f673146101225780636844b5161461013e5780636bc96f1b146101485780636eddc72814610164578063715018a61461018257806378e979251461018c5780637fbb0fce146101aa5780638da5cb5b146101c8575b600080fd5b610120600480360381019061011b9190610fd1565b610342565b005b61013c6004803603810190610137919061104c565b6103dc565b005b610146610585565b005b610162600480360381019061015d9190611023565b6105aa565b005b61016c61060a565b604051610179919061135b565b60405180910390f35b61018a610698565b005b6101946106ac565b6040516101a19190611495565b60405180910390f35b6101b26106b2565b6040516101bf919061137d565b60405180910390f35b6101d0610796565b6040516101dd9190611317565b60405180910390f35b61020060048036038101906101fb9190610fd1565b6107bf565b005b61020a61087b565b604051610217919061139f565b60405180910390f35b61023a60048036038101906102359190611023565b61088e565b005b61025660048036038101906102519190610fd1565b610c39565b604051610263919061139f565b60405180910390f35b61028660048036038101906102819190611023565b610d0e565b604051610293919061139f565b60405180910390f35b6102b660048036038101906102b19190611023565b610d42565b6040516102c39190611317565b60405180910390f35b6102d4610d81565b6040516102e1919061139f565b60405180910390f35b6102f2610d98565b6040516102ff9190611495565b60405180910390f35b610322600480360381019061031d9190610fd1565b610d9e565b005b61032c610e22565b60405161033991906113ba565b60405180910390f35b61034a610e48565b60001515610356610d81565b151514610398576040517f08c379a000000000000000000000000000000000000000000000000000000000815260040161038f90611455565b60405180910390fd5b80600260016101000a81548173ffffffffffffffffffffffffffffffffffffffff021916908373ffffffffffffffffffffffffffffffffffffffff16021790555050565b6103e4610e48565b600015156103f0610d81565b151514610432576040517f08c379a000000000000000000000000000000000000000000000000000000000815260040161042990611455565b60405180910390fd5b60005b60048054905081101561049d5761044b83610c39565b61048a576040517f08c379a000000000000000000000000000000000000000000000000000000000815260040161048190611435565b60405180910390fd5b80806104959061164f565b915050610435565b50600460405180608001604052808581526020018473ffffffffffffffffffffffffffffffffffffffff1681526020018381526020016000151581525090806001815401808255809150506001900390600052602060002090600402016000909190919091506000820151816000015560208201518160010160006101000a81548173ffffffffffffffffffffffffffffffffffffffff021916908373ffffffffffffffffffffffffffffffffffffffff1602179055506040820151816002015560608201518160030160006101000a81548160ff0219169083151502179055505050505050565b61058d610e48565b6001600260006101000a81548160ff021916908315150217905550565b6105b2610e48565b600015156105be610d81565b151514610600576040517f08c379a00000000000000000000000000000000000000000000000000000000081526004016105f790611455565b60405180910390fd5b8060018190555050565b6060600580548060200260200160405190810160405280929190818152602001828054801561068e57602002820191906000526020600020905b8160009054906101000a900473ffffffffffffffffffffffffffffffffffffffff1673ffffffffffffffffffffffffffffffffffffffff1681526020019060010190808311610644575b5050505050905090565b6106a0610e48565b6106aa6000610ec6565b565b60015481565b60606004805480602002602001604051908101604052809291908181526020016000905b8282101561078d5783829060005260206000209060040201604051806080016040529081600082015481526020016001820160009054906101000a900473ffffffffffffffffffffffffffffffffffffffff1673ffffffffffffffffffffffffffffffffffffffff1673ffffffffffffffffffffffffffffffffffffffff168152602001600282015481526020016003820160009054906101000a900460ff161515151581525050815260200190600101906106d6565b50505050905090565b60008060009054906101000a900473ffffffffffffffffffffffffffffffffffffffff16905090565b6107c7610e48565b600015156107d3610d81565b151514610815576040517f08c379a000000000000000000000000000000000000000000000000000000000815260040161080c90611455565b60405180910390fd5b6005819080600181540180825580915050600190039060005260206000200160009091909190916101000a81548173ffffffffffffffffffffffffffffffffffffffff021916908373ffffffffffffffffffffffffffffffffffffffff16021790555050565b600260009054906101000a900460ff1681565b610896610e48565b600115156108a2610d81565b1515146108e4576040517f08c379a00000000000000000000000000000000000000000000000000000000081526004016108db90611475565b60405180910390fd5b60005b600480549050811015610c355760035460048281548110610931577f4e487b7100000000000000000000000000000000000000000000000000000000600052603260045260246000fd5b90600052602060002090600402016000015461094d9190611589565b60015461095a9190611533565b42101561099c576040517f08c379a0000000000000000000000000000000000000000000000000000000008152600401610993906113f5565b60405180910390fd5b81600482815481106109d7577f4e487b7100000000000000000000000000000000000000000000000000000000600052603260045260246000fd5b906000526020600020906004020160000154148015610a5257506000151560048281548110610a2f577f4e487b7100000000000000000000000000000000000000000000000000000000600052603260045260246000fd5b906000526020600020906004020160030160009054906101000a900460ff161515145b15610c2257600160048281548110610a93577f4e487b7100000000000000000000000000000000000000000000000000000000600052603260045260246000fd5b906000526020600020906004020160030160006101000a81548160ff021916908315150217905550600260019054906101000a900473ffffffffffffffffffffffffffffffffffffffff1673ffffffffffffffffffffffffffffffffffffffff1663a9059cbb60048381548110610b33577f4e487b7100000000000000000000000000000000000000000000000000000000600052603260045260246000fd5b906000526020600020906004020160010160009054906101000a900473ffffffffffffffffffffffffffffffffffffffff1660048481548110610b9f577f4e487b7100000000000000000000000000000000000000000000000000000000600052603260045260246000fd5b9060005260206000209060040201600201546040518363ffffffff1660e01b8152600401610bce929190611332565b602060405180830381600087803b158015610be857600080fd5b505af1158015610bfc573d6000803e3d6000fd5b505050506040513d601f19601f82011682018060405250810190610c209190610ffa565b505b8080610c2d9061164f565b9150506108e7565b5050565b600080600090505b600580549050811015610d03578273ffffffffffffffffffffffffffffffffffffffff1660058281548110610c9f577f4e487b7100000000000000000000000000000000000000000000000000000000600052603260045260246000fd5b9060005260206000200160009054906101000a900473ffffffffffffffffffffffffffffffffffffffff1673ffffffffffffffffffffffffffffffffffffffff161415610cf0576001915050610d09565b8080610cfb9061164f565b915050610c41565b50600090505b919050565b60068181548110610d1e57600080fd5b9060005260206000209060209182820401919006915054906101000a900460ff1681565b60058181548110610d5257600080fd5b906000526020600020016000915054906101000a900473ffffffffffffffffffffffffffffffffffffffff1681565b6000600260009054906101000a900460ff16905090565b60035481565b610da6610e48565b600073ffffffffffffffffffffffffffffffffffffffff168173ffffffffffffffffffffffffffffffffffffffff161415610e16576040517f08c379a0000000000000000000000000000000000000000000000000000000008152600401610e0d906113d5565b60405180910390fd5b610e1f81610ec6565b50565b600260019054906101000a900473ffffffffffffffffffffffffffffffffffffffff1681565b610e50610f8a565b73ffffffffffffffffffffffffffffffffffffffff16610e6e610796565b73ffffffffffffffffffffffffffffffffffffffff1614610ec4576040517f08c379a0000000000000000000000000000000000000000000000000000000008152600401610ebb90611415565b60405180910390fd5b565b60008060009054906101000a900473ffffffffffffffffffffffffffffffffffffffff169050816000806101000a81548173ffffffffffffffffffffffffffffffffffffffff021916908373ffffffffffffffffffffffffffffffffffffffff1602179055508173ffffffffffffffffffffffffffffffffffffffff168173ffffffffffffffffffffffffffffffffffffffff167f8be0079c531659141344cd1fd0a4f28419497f9722a3daafe3b4186f6b6457e060405160405180910390a35050565b600033905090565b600081359050610fa181611809565b92915050565b600081519050610fb681611820565b92915050565b600081359050610fcb81611837565b92915050565b600060208284031215610fe357600080fd5b6000610ff184828501610f92565b91505092915050565b60006020828403121561100c57600080fd5b600061101a84828501610fa7565b91505092915050565b60006020828403121561103557600080fd5b600061104384828501610fbc565b91505092915050565b60008060006060848603121561106157600080fd5b600061106f86828701610fbc565b935050602061108086828701610f92565b925050604061109186828701610fbc565b9150509250925092565b60006110a783836110cb565b60208301905092915050565b60006110bf83836112a4565b60808301905092915050565b6110d4816115e3565b82525050565b6110e3816115e3565b82525050565b60006110f4826114d0565b6110fe8185611500565b9350611109836114b0565b8060005b8381101561113a578151611121888261109b565b975061112c836114e6565b92505060018101905061110d565b5085935050505092915050565b6000611152826114db565b61115c8185611511565b9350611167836114c0565b8060005b8381101561119857815161117f88826110b3565b975061118a836114f3565b92505060018101905061116b565b5085935050505092915050565b6111ae816115f5565b82525050565b6111bd816115f5565b82525050565b6111cc8161162b565b82525050565b60006111df602683611522565b91506111ea826116c7565b604082019050919050565b6000611202602183611522565b915061120d82611716565b604082019050919050565b6000611225602083611522565b915061123082611765565b602082019050919050565b6000611248602083611522565b91506112538261178e565b602082019050919050565b600061126b601b83611522565b9150611276826117b7565b602082019050919050565b600061128e601b83611522565b9150611299826117e0565b602082019050919050565b6080820160008201516112ba60008501826112f9565b5060208201516112cd60208501826110cb565b5060408201516112e060408501826112f9565b5060608201516112f360608501826111a5565b50505050565b61130281611621565b82525050565b61131181611621565b82525050565b600060208201905061132c60008301846110da565b92915050565b600060408201905061134760008301856110da565b6113546020830184611308565b9392505050565b6000602082019050818103600083015261137581846110e9565b905092915050565b600060208201905081810360008301526113978184611147565b905092915050565b60006020820190506113b460008301846111b4565b92915050565b60006020820190506113cf60008301846111c3565b92915050565b600060208201905081810360008301526113ee816111d2565b9050919050565b6000602082019050818103600083015261140e816111f5565b9050919050565b6000602082019050818103600083015261142e81611218565b9050919050565b6000602082019050818103600083015261144e8161123b565b9050919050565b6000602082019050818103600083015261146e8161125e565b9050919050565b6000602082019050818103600083015261148e81611281565b9050919050565b60006020820190506114aa6000830184611308565b92915050565b6000819050602082019050919050565b6000819050602082019050919050565b600081519050919050565b600081519050919050565b6000602082019050919050565b6000602082019050919050565b600082825260208201905092915050565b600082825260208201905092915050565b600082825260208201905092915050565b600061153e82611621565b915061154983611621565b9250827fffffffffffffffffffffffffffffffffffffffffffffffffffffffffffffffff0382111561157e5761157d611698565b5b828201905092915050565b600061159482611621565b915061159f83611621565b9250817fffffffffffffffffffffffffffffffffffffffffffffffffffffffffffffffff04831182151516156115d8576115d7611698565b5b828202905092915050565b60006115ee82611601565b9050919050565b60008115159050919050565b600073ffffffffffffffffffffffffffffffffffffffff82169050919050565b6000819050919050565b60006116368261163d565b9050919050565b600061164882611601565b9050919050565b600061165a82611621565b91507fffffffffffffffffffffffffffffffffffffffffffffffffffffffffffffffff82141561168d5761168c611698565b5b600182019050919050565b7f4e487b7100000000000000000000000000000000000000000000000000000000600052601160045260246000fd5b7f4f776e61626c653a206e6577206f776e657220697320746865207a65726f206160008201527f6464726573730000000000000000000000000000000000000000000000000000602082015250565b7f56657374696e6720706572696f6420686173206e6f742070617373656420796560008201527f7400000000000000000000000000000000000000000000000000000000000000602082015250565b7f4f776e61626c653a2063616c6c6572206973206e6f7420746865206f776e6572600082015250565b7f44657374696e6174696f6e206973206e6f7420696e2077686974656c69737421600082015250565b7f5363686564756c6520697320616c7265616479206c6f636b6564210000000000600082015250565b7f5363686564756c65206973206e6f74206c6f636b656420796574210000000000600082015250565b611812816115e3565b811461181d57600080fd5b50565b611829816115f5565b811461183457600080fd5b50565b61184081611621565b811461184b57600080fd5b5056fea264697066735822122092c9a01dd4b2bada034e4e69cea0c5541ca91b91d53c70af4730382e9a1915b264736f6c63430008040033",
  "linkReferences": {},
  "deployedLinkReferences": {}
}