{
  "_format": "hh-sol-artifact-1",
  "contractName": "Dubs",
  "sourceName": "contracts/Dubs.sol",
  "abi": [
    {
      "inputs": [],
      "stateMutability": "nonpayable",
      "type": "constructor"
    },
    {
      "anonymous": false,
      "inputs": [
        {
          "indexed": true,
          "internalType": "address",
          "name": "owner",
          "type": "address"
        },
        {
          "indexed": true,
          "internalType": "address",
          "name": "spender",
          "type": "address"
        },
        {
          "indexed": false,
          "internalType": "uint256",
          "name": "value",
          "type": "uint256"
        }
      ],
      "name": "Approval",
      "type": "event"
    },
    {
      "anonymous": false,
      "inputs": [
        {
          "indexed": true,
          "internalType": "address",
          "name": "from",
          "type": "address"
        },
        {
          "indexed": true,
          "internalType": "address",
          "name": "to",
          "type": "address"
        },
        {
          "indexed": false,
          "internalType": "uint256",
          "name": "value",
          "type": "uint256"
        }
      ],
      "name": "Transfer",
      "type": "event"
    },
    {
      "inputs": [],
      "name": "DOMAIN_SEPARATOR",
      "outputs": [
        {
          "internalType": "bytes32",
          "name": "",
          "type": "bytes32"
        }
      ],
      "stateMutability": "view",
      "type": "function"
    },
    {
      "inputs": [],
      "name": "INITIAL_SUPPLY",
      "outputs": [
        {
          "internalType": "uint256",
          "name": "",
          "type": "uint256"
        }
      ],
      "stateMutability": "view",
      "type": "function"
    },
    {
      "inputs": [
        {
          "internalType": "address",
          "name": "owner",
          "type": "address"
        },
        {
          "internalType": "address",
          "name": "spender",
          "type": "address"
        }
      ],
      "name": "allowance",
      "outputs": [
        {
          "internalType": "uint256",
          "name": "",
          "type": "uint256"
        }
      ],
      "stateMutability": "view",
      "type": "function"
    },
    {
      "inputs": [
        {
          "internalType": "address",
          "name": "spender",
          "type": "address"
        },
        {
          "internalType": "uint256",
          "name": "amount",
          "type": "uint256"
        }
      ],
      "name": "approve",
      "outputs": [
        {
          "internalType": "bool",
          "name": "",
          "type": "bool"
        }
      ],
      "stateMutability": "nonpayable",
      "type": "function"
    },
    {
      "inputs": [
        {
          "internalType": "address",
          "name": "account",
          "type": "address"
        }
      ],
      "name": "balanceOf",
      "outputs": [
        {
          "internalType": "uint256",
          "name": "",
          "type": "uint256"
        }
      ],
      "stateMutability": "view",
      "type": "function"
    },
    {
      "inputs": [],
      "name": "decimals",
      "outputs": [
        {
          "internalType": "uint8",
          "name": "",
          "type": "uint8"
        }
      ],
      "stateMutability": "view",
      "type": "function"
    },
    {
      "inputs": [
        {
          "internalType": "address",
          "name": "spender",
          "type": "address"
        },
        {
          "internalType": "uint256",
          "name": "subtractedValue",
          "type": "uint256"
        }
      ],
      "name": "decreaseAllowance",
      "outputs": [
        {
          "internalType": "bool",
          "name": "",
          "type": "bool"
        }
      ],
      "stateMutability": "nonpayable",
      "type": "function"
    },
    {
      "inputs": [
        {
          "internalType": "address",
          "name": "spender",
          "type": "address"
        },
        {
          "internalType": "uint256",
          "name": "addedValue",
          "type": "uint256"
        }
      ],
      "name": "increaseAllowance",
      "outputs": [
        {
          "internalType": "bool",
          "name": "",
          "type": "bool"
        }
      ],
      "stateMutability": "nonpayable",
      "type": "function"
    },
    {
      "inputs": [],
      "name": "name",
      "outputs": [
        {
          "internalType": "string",
          "name": "",
          "type": "string"
        }
      ],
      "stateMutability": "view",
      "type": "function"
    },
    {
      "inputs": [
        {
          "internalType": "address",
          "name": "owner",
          "type": "address"
        }
      ],
      "name": "nonces",
      "outputs": [
        {
          "internalType": "uint256",
          "name": "",
          "type": "uint256"
        }
      ],
      "stateMutability": "view",
      "type": "function"
    },
    {
      "inputs": [
        {
          "internalType": "address",
          "name": "owner",
          "type": "address"
        },
        {
          "internalType": "address",
          "name": "spender",
          "type": "address"
        },
        {
          "internalType": "uint256",
          "name": "value",
          "type": "uint256"
        },
        {
          "internalType": "uint256",
          "name": "deadline",
          "type": "uint256"
        },
        {
          "internalType": "uint8",
          "name": "v",
          "type": "uint8"
        },
        {
          "internalType": "bytes32",
          "name": "r",
          "type": "bytes32"
        },
        {
          "internalType": "bytes32",
          "name": "s",
          "type": "bytes32"
        }
      ],
      "name": "permit",
      "outputs": [],
      "stateMutability": "nonpayable",
      "type": "function"
    },
    {
      "inputs": [],
      "name": "symbol",
      "outputs": [
        {
          "internalType": "string",
          "name": "",
          "type": "string"
        }
      ],
      "stateMutability": "view",
      "type": "function"
    },
    {
      "inputs": [],
      "name": "totalSupply",
      "outputs": [
        {
          "internalType": "uint256",
          "name": "",
          "type": "uint256"
        }
      ],
      "stateMutability": "view",
      "type": "function"
    },
    {
      "inputs": [
        {
          "internalType": "address",
          "name": "to",
          "type": "address"
        },
        {
          "internalType": "uint256",
          "name": "amount",
          "type": "uint256"
        }
      ],
      "name": "transfer",
      "outputs": [
        {
          "internalType": "bool",
          "name": "",
          "type": "bool"
        }
      ],
      "stateMutability": "nonpayable",
      "type": "function"
    },
    {
      "inputs": [
        {
          "internalType": "address",
          "name": "from",
          "type": "address"
        },
        {
          "internalType": "address",
          "name": "to",
          "type": "address"
        },
        {
          "internalType": "uint256",
          "name": "amount",
          "type": "uint256"
        }
      ],
      "name": "transferFrom",
      "outputs": [
        {
          "internalType": "bool",
          "name": "",
          "type": "bool"
        }
      ],
      "stateMutability": "nonpayable",
      "type": "function"
    }
  ],
  "bytecode": "0x6101406040523480156200001257600080fd5b506040518060400160405280601a81526020017f41667465726d6174682049736c616e647320446f75626c6f6f6e000000000000815250806040518060400160405280600181526020017f31000000000000000000000000000000000000000000000000000000000000008152506040518060400160405280601a81526020017f41667465726d6174682049736c616e647320446f75626c6f6f6e0000000000008152506040518060400160405280600481526020017f4455425300000000000000000000000000000000000000000000000000000000815250816003908051906020019062000104929190620003c6565b5080600490805190602001906200011d929190620003c6565b50505060008280519060200120905060008280519060200120905060007f8b73c3c69bb8fe3d512ecc4cf759cc79239f7b179b0ffacaa9a75d522b39400f90508260e081815250508161010081815250504660a08181525050620001898184846200020760201b60201c565b608081815250503073ffffffffffffffffffffffffffffffffffffffff1660c08173ffffffffffffffffffffffffffffffffffffffff1660601b815250508061012081815250505050505050506200020133670de0b6b3a764000063d09dc300620001f59190620005da565b6200024360201b60201c565b62000740565b6000838383463060405160200162000224959493929190620004d0565b6040516020818303038152906040528051906020012090509392505050565b600073ffffffffffffffffffffffffffffffffffffffff168273ffffffffffffffffffffffffffffffffffffffff161415620002b6576040517f08c379a0000000000000000000000000000000000000000000000000000000008152600401620002ad906200052d565b60405180910390fd5b620002ca60008383620003bc60201b60201c565b8060026000828254620002de91906200057d565b92505081905550806000808473ffffffffffffffffffffffffffffffffffffffff1673ffffffffffffffffffffffffffffffffffffffff16815260200190815260200160002060008282546200033591906200057d565b925050819055508173ffffffffffffffffffffffffffffffffffffffff16600073ffffffffffffffffffffffffffffffffffffffff167fddf252ad1be2c89b69c2b068fc378daa952ba7f163c4a11628f55a4df523b3ef836040516200039c91906200054f565b60405180910390a3620003b860008383620003c160201b60201c565b5050565b505050565b505050565b828054620003d49062000683565b90600052602060002090601f016020900481019282620003f8576000855562000444565b82601f106200041357805160ff191683800117855562000444565b8280016001018555821562000444579182015b828111156200044357825182559160200191906001019062000426565b5b50905062000453919062000457565b5090565b5b808211156200047257600081600090555060010162000458565b5090565b62000481816200063b565b82525050565b62000492816200064f565b82525050565b6000620004a7601f836200056c565b9150620004b48262000717565b602082019050919050565b620004ca8162000679565b82525050565b600060a082019050620004e7600083018862000487565b620004f6602083018762000487565b62000505604083018662000487565b620005146060830185620004bf565b62000523608083018462000476565b9695505050505050565b60006020820190508181036000830152620005488162000498565b9050919050565b6000602082019050620005666000830184620004bf565b92915050565b600082825260208201905092915050565b60006200058a8262000679565b9150620005978362000679565b9250827fffffffffffffffffffffffffffffffffffffffffffffffffffffffffffffffff03821115620005cf57620005ce620006b9565b5b828201905092915050565b6000620005e78262000679565b9150620005f48362000679565b9250817fffffffffffffffffffffffffffffffffffffffffffffffffffffffffffffffff048311821515161562000630576200062f620006b9565b5b828202905092915050565b6000620006488262000659565b9050919050565b6000819050919050565b600073ffffffffffffffffffffffffffffffffffffffff82169050919050565b6000819050919050565b600060028204905060018216806200069c57607f821691505b60208210811415620006b357620006b2620006e8565b5b50919050565b7f4e487b7100000000000000000000000000000000000000000000000000000000600052601160045260246000fd5b7f4e487b7100000000000000000000000000000000000000000000000000000000600052602260045260246000fd5b7f45524332303a206d696e7420746f20746865207a65726f206164647265737300600082015250565b60805160a05160c05160601c60e0516101005161012051612101620007936000396000610d7a01526000610dbc01526000610d9b01526000610cd001526000610d2601526000610d4f01526121016000f3fe608060405234801561001057600080fd5b50600436106100c55760003560e01c806306fdde03146100ca578063095ea7b3146100e857806318160ddd1461011857806323b872dd146101365780632ff2e9dc14610166578063313ce567146101845780633644e515146101a257806339509351146101c057806370a08231146101f05780637ecebe001461022057806395d89b4114610250578063a457c2d71461026e578063a9059cbb1461029e578063d505accf146102ce578063dd62ed3e146102ea575b600080fd5b6100d261031a565b6040516100df919061194f565b60405180910390f35b61010260048036038101906100fd9190611528565b6103ac565b60405161010f9190611820565b60405180910390f35b6101206103cf565b60405161012d9190611b11565b60405180910390f35b610150600480360381019061014b919061143b565b6103d9565b60405161015d9190611820565b60405180910390f35b61016e610408565b60405161017b9190611b11565b60405180910390f35b61018c610410565b6040516101999190611b2c565b60405180910390f35b6101aa610419565b6040516101b7919061183b565b60405180910390f35b6101da60048036038101906101d59190611528565b610428565b6040516101e79190611820565b60405180910390f35b61020a600480360381019061020591906113d6565b61045f565b6040516102179190611b11565b60405180910390f35b61023a600480360381019061023591906113d6565b6104a7565b6040516102479190611b11565b60405180910390f35b6102586104f7565b604051610265919061194f565b60405180910390f35b61028860048036038101906102839190611528565b610589565b6040516102959190611820565b60405180910390f35b6102b860048036038101906102b39190611528565b610600565b6040516102c59190611820565b60405180910390f35b6102e860048036038101906102e3919061148a565b610623565b005b61030460048036038101906102ff91906113ff565b610765565b6040516103119190611b11565b60405180910390f35b60606003805461032990611c56565b80601f016020809104026020016040519081016040528092919081815260200182805461035590611c56565b80156103a25780601f10610377576101008083540402835291602001916103a2565b820191906000526020600020905b81548152906001019060200180831161038557829003601f168201915b5050505050905090565b6000806103b76107ec565b90506103c48185856107f4565b600191505092915050565b6000600254905090565b6000806103e46107ec565b90506103f18582856109bf565b6103fc858585610a4b565b60019150509392505050565b63d09dc30081565b60006012905090565b6000610423610ccc565b905090565b6000806104336107ec565b90506104548185856104458589610765565b61044f9190611b6e565b6107f4565b600191505092915050565b60008060008373ffffffffffffffffffffffffffffffffffffffff1673ffffffffffffffffffffffffffffffffffffffff168152602001908152602001600020549050919050565b60006104f0600560008473ffffffffffffffffffffffffffffffffffffffff1673ffffffffffffffffffffffffffffffffffffffff168152602001908152602001600020610de6565b9050919050565b60606004805461050690611c56565b80601f016020809104026020016040519081016040528092919081815260200182805461053290611c56565b801561057f5780601f106105545761010080835404028352916020019161057f565b820191906000526020600020905b81548152906001019060200180831161056257829003601f168201915b5050505050905090565b6000806105946107ec565b905060006105a28286610765565b9050838110156105e7576040517f08c379a00000000000000000000000000000000000000000000000000000000081526004016105de90611af1565b60405180910390fd5b6105f482868684036107f4565b60019250505092915050565b60008061060b6107ec565b9050610618818585610a4b565b600191505092915050565b83421115610666576040517f08c379a000000000000000000000000000000000000000000000000000000000815260040161065d90611a11565b60405180910390fd5b60007f6e71edae12b1b97f4d1f60370fef10105fa2faae0126114a169c64845d6126c98888886106958c610df4565b896040516020016106ab96959493929190611856565b60405160208183030381529060405280519060200120905060006106ce82610e52565b905060006106de82878787610e6c565b90508973ffffffffffffffffffffffffffffffffffffffff168173ffffffffffffffffffffffffffffffffffffffff161461074e576040517f08c379a000000000000000000000000000000000000000000000000000000000815260040161074590611a91565b60405180910390fd5b6107598a8a8a6107f4565b50505050505050505050565b6000600160008473ffffffffffffffffffffffffffffffffffffffff1673ffffffffffffffffffffffffffffffffffffffff16815260200190815260200160002060008373ffffffffffffffffffffffffffffffffffffffff1673ffffffffffffffffffffffffffffffffffffffff16815260200190815260200160002054905092915050565b600033905090565b600073ffffffffffffffffffffffffffffffffffffffff168373ffffffffffffffffffffffffffffffffffffffff161415610864576040517f08c379a000000000000000000000000000000000000000000000000000000000815260040161085b90611ad1565b60405180910390fd5b600073ffffffffffffffffffffffffffffffffffffffff168273ffffffffffffffffffffffffffffffffffffffff1614156108d4576040517f08c379a00000000000000000000000000000000000000000000000000000000081526004016108cb906119d1565b60405180910390fd5b80600160008573ffffffffffffffffffffffffffffffffffffffff1673ffffffffffffffffffffffffffffffffffffffff16815260200190815260200160002060008473ffffffffffffffffffffffffffffffffffffffff1673ffffffffffffffffffffffffffffffffffffffff168152602001908152602001600020819055508173ffffffffffffffffffffffffffffffffffffffff168373ffffffffffffffffffffffffffffffffffffffff167f8c5be1e5ebec7d5bd14f71427d1e84f3dd0314c0f7b2291e5b200ac8c7c3b925836040516109b29190611b11565b60405180910390a3505050565b60006109cb8484610765565b90507fffffffffffffffffffffffffffffffffffffffffffffffffffffffffffffffff8114610a455781811015610a37576040517f08c379a0000000000000000000000000000000000000000000000000000000008152600401610a2e906119f1565b60405180910390fd5b610a4484848484036107f4565b5b50505050565b600073ffffffffffffffffffffffffffffffffffffffff168373ffffffffffffffffffffffffffffffffffffffff161415610abb576040517f08c379a0000000000000000000000000000000000000000000000000000000008152600401610ab290611ab1565b60405180910390fd5b600073ffffffffffffffffffffffffffffffffffffffff168273ffffffffffffffffffffffffffffffffffffffff161415610b2b576040517f08c379a0000000000000000000000000000000000000000000000000000000008152600401610b2290611991565b60405180910390fd5b610b36838383610e97565b60008060008573ffffffffffffffffffffffffffffffffffffffff1673ffffffffffffffffffffffffffffffffffffffff16815260200190815260200160002054905081811015610bbc576040517f08c379a0000000000000000000000000000000000000000000000000000000008152600401610bb390611a31565b60405180910390fd5b8181036000808673ffffffffffffffffffffffffffffffffffffffff1673ffffffffffffffffffffffffffffffffffffffff16815260200190815260200160002081905550816000808573ffffffffffffffffffffffffffffffffffffffff1673ffffffffffffffffffffffffffffffffffffffff1681526020019081526020016000206000828254610c4f9190611b6e565b925050819055508273ffffffffffffffffffffffffffffffffffffffff168473ffffffffffffffffffffffffffffffffffffffff167fddf252ad1be2c89b69c2b068fc378daa952ba7f163c4a11628f55a4df523b3ef84604051610cb39190611b11565b60405180910390a3610cc6848484610e9c565b50505050565b60007f000000000000000000000000000000000000000000000000000000000000000073ffffffffffffffffffffffffffffffffffffffff163073ffffffffffffffffffffffffffffffffffffffff16148015610d4857507f000000000000000000000000000000000000000000000000000000000000000046145b15610d75577f00000000000000000000000000000000000000000000000000000000000000009050610de3565b610de07f00000000000000000000000000000000000000000000000000000000000000007f00000000000000000000000000000000000000000000000000000000000000007f0000000000000000000000000000000000000000000000000000000000000000610ea1565b90505b90565b600081600001549050919050565b600080600560008473ffffffffffffffffffffffffffffffffffffffff1673ffffffffffffffffffffffffffffffffffffffff1681526020019081526020016000209050610e4181610de6565b9150610e4c81610edb565b50919050565b6000610e65610e5f610ccc565b83610ef1565b9050919050565b6000806000610e7d87878787610f24565b91509150610e8a81611031565b8192505050949350505050565b505050565b505050565b60008383834630604051602001610ebc9594939291906118b7565b6040516020818303038152906040528051906020012090509392505050565b6001816000016000828254019250508190555050565b60008282604051602001610f069291906117e9565b60405160208183030381529060405280519060200120905092915050565b6000807f7fffffffffffffffffffffffffffffff5d576e7357a4501ddfe92f46681b20a08360001c1115610f5f576000600391509150611028565b601b8560ff1614158015610f775750601c8560ff1614155b15610f89576000600491509150611028565b600060018787878760405160008152602001604052604051610fae949392919061190a565b6020604051602081039080840390855afa158015610fd0573d6000803e3d6000fd5b505050602060405103519050600073ffffffffffffffffffffffffffffffffffffffff168173ffffffffffffffffffffffffffffffffffffffff16141561101f57600060019250925050611028565b80600092509250505b94509492505050565b6000600481111561106b577f4e487b7100000000000000000000000000000000000000000000000000000000600052602160045260246000fd5b8160048111156110a4577f4e487b7100000000000000000000000000000000000000000000000000000000600052602160045260246000fd5b14156110af5761137f565b600160048111156110e9577f4e487b7100000000000000000000000000000000000000000000000000000000600052602160045260246000fd5b816004811115611122577f4e487b7100000000000000000000000000000000000000000000000000000000600052602160045260246000fd5b1415611163576040517f08c379a000000000000000000000000000000000000000000000000000000000815260040161115a90611971565b60405180910390fd5b6002600481111561119d577f4e487b7100000000000000000000000000000000000000000000000000000000600052602160045260246000fd5b8160048111156111d6577f4e487b7100000000000000000000000000000000000000000000000000000000600052602160045260246000fd5b1415611217576040517f08c379a000000000000000000000000000000000000000000000000000000000815260040161120e906119b1565b60405180910390fd5b60036004811115611251577f4e487b7100000000000000000000000000000000000000000000000000000000600052602160045260246000fd5b81600481111561128a577f4e487b7100000000000000000000000000000000000000000000000000000000600052602160045260246000fd5b14156112cb576040517f08c379a00000000000000000000000000000000000000000000000000000000081526004016112c290611a51565b60405180910390fd5b600480811115611304577f4e487b7100000000000000000000000000000000000000000000000000000000600052602160045260246000fd5b81600481111561133d577f4e487b7100000000000000000000000000000000000000000000000000000000600052602160045260246000fd5b141561137e576040517f08c379a000000000000000000000000000000000000000000000000000000000815260040161137590611a71565b60405180910390fd5b5b50565b6000813590506113918161206f565b92915050565b6000813590506113a681612086565b92915050565b6000813590506113bb8161209d565b92915050565b6000813590506113d0816120b4565b92915050565b6000602082840312156113e857600080fd5b60006113f684828501611382565b91505092915050565b6000806040838503121561141257600080fd5b600061142085828601611382565b925050602061143185828601611382565b9150509250929050565b60008060006060848603121561145057600080fd5b600061145e86828701611382565b935050602061146f86828701611382565b9250506040611480868287016113ac565b9150509250925092565b600080600080600080600060e0888a0312156114a557600080fd5b60006114b38a828b01611382565b97505060206114c48a828b01611382565b96505060406114d58a828b016113ac565b95505060606114e68a828b016113ac565b94505060806114f78a828b016113c1565b93505060a06115088a828b01611397565b92505060c06115198a828b01611397565b91505092959891949750929550565b6000806040838503121561153b57600080fd5b600061154985828601611382565b925050602061155a858286016113ac565b9150509250929050565b61156d81611bc4565b82525050565b61157c81611bd6565b82525050565b61158b81611be2565b82525050565b6115a261159d82611be2565b611c88565b82525050565b60006115b382611b47565b6115bd8185611b52565b93506115cd818560208601611c23565b6115d681611cf0565b840191505092915050565b60006115ee601883611b52565b91506115f982611d01565b602082019050919050565b6000611611602383611b52565b915061161c82611d2a565b604082019050919050565b6000611634601f83611b52565b915061163f82611d79565b602082019050919050565b6000611657602283611b52565b915061166282611da2565b604082019050919050565b600061167a600283611b63565b915061168582611df1565b600282019050919050565b600061169d601d83611b52565b91506116a882611e1a565b602082019050919050565b60006116c0601d83611b52565b91506116cb82611e43565b602082019050919050565b60006116e3602683611b52565b91506116ee82611e6c565b604082019050919050565b6000611706602283611b52565b915061171182611ebb565b604082019050919050565b6000611729602283611b52565b915061173482611f0a565b604082019050919050565b600061174c601e83611b52565b915061175782611f59565b602082019050919050565b600061176f602583611b52565b915061177a82611f82565b604082019050919050565b6000611792602483611b52565b915061179d82611fd1565b604082019050919050565b60006117b5602583611b52565b91506117c082612020565b604082019050919050565b6117d481611c0c565b82525050565b6117e381611c16565b82525050565b60006117f48261166d565b91506118008285611591565b6020820191506118108284611591565b6020820191508190509392505050565b60006020820190506118356000830184611573565b92915050565b60006020820190506118506000830184611582565b92915050565b600060c08201905061186b6000830189611582565b6118786020830188611564565b6118856040830187611564565b61189260608301866117cb565b61189f60808301856117cb565b6118ac60a08301846117cb565b979650505050505050565b600060a0820190506118cc6000830188611582565b6118d96020830187611582565b6118e66040830186611582565b6118f360608301856117cb565b6119006080830184611564565b9695505050505050565b600060808201905061191f6000830187611582565b61192c60208301866117da565b6119396040830185611582565b6119466060830184611582565b95945050505050565b6000602082019050818103600083015261196981846115a8565b905092915050565b6000602082019050818103600083015261198a816115e1565b9050919050565b600060208201905081810360008301526119aa81611604565b9050919050565b600060208201905081810360008301526119ca81611627565b9050919050565b600060208201905081810360008301526119ea8161164a565b9050919050565b60006020820190508181036000830152611a0a81611690565b9050919050565b60006020820190508181036000830152611a2a816116b3565b9050919050565b60006020820190508181036000830152611a4a816116d6565b9050919050565b60006020820190508181036000830152611a6a816116f9565b9050919050565b60006020820190508181036000830152611a8a8161171c565b9050919050565b60006020820190508181036000830152611aaa8161173f565b9050919050565b60006020820190508181036000830152611aca81611762565b9050919050565b60006020820190508181036000830152611aea81611785565b9050919050565b60006020820190508181036000830152611b0a816117a8565b9050919050565b6000602082019050611b2660008301846117cb565b92915050565b6000602082019050611b4160008301846117da565b92915050565b600081519050919050565b600082825260208201905092915050565b600081905092915050565b6000611b7982611c0c565b9150611b8483611c0c565b9250827fffffffffffffffffffffffffffffffffffffffffffffffffffffffffffffffff03821115611bb957611bb8611c92565b5b828201905092915050565b6000611bcf82611bec565b9050919050565b60008115159050919050565b6000819050919050565b600073ffffffffffffffffffffffffffffffffffffffff82169050919050565b6000819050919050565b600060ff82169050919050565b60005b83811015611c41578082015181840152602081019050611c26565b83811115611c50576000848401525b50505050565b60006002820490506001821680611c6e57607f821691505b60208210811415611c8257611c81611cc1565b5b50919050565b6000819050919050565b7f4e487b7100000000000000000000000000000000000000000000000000000000600052601160045260246000fd5b7f4e487b7100000000000000000000000000000000000000000000000000000000600052602260045260246000fd5b6000601f19601f8301169050919050565b7f45434453413a20696e76616c6964207369676e61747572650000000000000000600082015250565b7f45524332303a207472616e7366657220746f20746865207a65726f206164647260008201527f6573730000000000000000000000000000000000000000000000000000000000602082015250565b7f45434453413a20696e76616c6964207369676e6174757265206c656e67746800600082015250565b7f45524332303a20617070726f766520746f20746865207a65726f20616464726560008201527f7373000000000000000000000000000000000000000000000000000000000000602082015250565b7f1901000000000000000000000000000000000000000000000000000000000000600082015250565b7f45524332303a20696e73756666696369656e7420616c6c6f77616e6365000000600082015250565b7f45524332305065726d69743a206578706972656420646561646c696e65000000600082015250565b7f45524332303a207472616e7366657220616d6f756e742065786365656473206260008201527f616c616e63650000000000000000000000000000000000000000000000000000602082015250565b7f45434453413a20696e76616c6964207369676e6174757265202773272076616c60008201527f7565000000000000000000000000000000000000000000000000000000000000602082015250565b7f45434453413a20696e76616c6964207369676e6174757265202776272076616c60008201527f7565000000000000000000000000000000000000000000000000000000000000602082015250565b7f45524332305065726d69743a20696e76616c6964207369676e61747572650000600082015250565b7f45524332303a207472616e736665722066726f6d20746865207a65726f20616460008201527f6472657373000000000000000000000000000000000000000000000000000000602082015250565b7f45524332303a20617070726f76652066726f6d20746865207a65726f2061646460008201527f7265737300000000000000000000000000000000000000000000000000000000602082015250565b7f45524332303a2064656372656173656420616c6c6f77616e63652062656c6f7760008201527f207a65726f000000000000000000000000000000000000000000000000000000602082015250565b61207881611bc4565b811461208357600080fd5b50565b61208f81611be2565b811461209a57600080fd5b50565b6120a681611c0c565b81146120b157600080fd5b50565b6120bd81611c16565b81146120c857600080fd5b5056fea2646970667358221220eec4003c8030d846abd98f99bee592e29b6bac8de662094d128c24174b7f188564736f6c63430008040033",
  "linkReferences": {},
  "deployedLinkReferences": {}
}