{
  "_format": "hh-sol-artifact-1",
  "contractName": "DUBS",
  "sourceName": "contracts/DUBS.sol",
  "abi": [
    {
      "inputs": [],
      "stateMutability": "nonpayable",
      "type": "constructor"
    },
    {
      "anonymous": false,
      "inputs": [
        {
          "indexed": true,
          "internalType": "address",
          "name": "owner",
          "type": "address"
        },
        {
          "indexed": true,
          "internalType": "address",
          "name": "spender",
          "type": "address"
        },
        {
          "indexed": false,
          "internalType": "uint256",
          "name": "value",
          "type": "uint256"
        }
      ],
      "name": "Approval",
      "type": "event"
    },
    {
      "anonymous": false,
      "inputs": [
        {
          "indexed": true,
          "internalType": "address",
          "name": "from",
          "type": "address"
        },
        {
          "indexed": true,
          "internalType": "address",
          "name": "to",
          "type": "address"
        },
        {
          "indexed": false,
          "internalType": "uint256",
          "name": "value",
          "type": "uint256"
        }
      ],
      "name": "Transfer",
      "type": "event"
    },
    {
      "inputs": [],
      "name": "DOMAIN_SEPARATOR",
      "outputs": [
        {
          "internalType": "bytes32",
          "name": "",
          "type": "bytes32"
        }
      ],
      "stateMutability": "view",
      "type": "function"
    },
    {
      "inputs": [],
      "name": "INITIAL_SUPPLY",
      "outputs": [
        {
          "internalType": "uint256",
          "name": "",
          "type": "uint256"
        }
      ],
      "stateMutability": "view",
      "type": "function"
    },
    {
      "inputs": [],
      "name": "TREASURY_ADDRESS",
      "outputs": [
        {
          "internalType": "address",
          "name": "",
          "type": "address"
        }
      ],
      "stateMutability": "view",
      "type": "function"
    },
    {
      "inputs": [
        {
          "internalType": "address",
          "name": "owner",
          "type": "address"
        },
        {
          "internalType": "address",
          "name": "spender",
          "type": "address"
        }
      ],
      "name": "allowance",
      "outputs": [
        {
          "internalType": "uint256",
          "name": "",
          "type": "uint256"
        }
      ],
      "stateMutability": "view",
      "type": "function"
    },
    {
      "inputs": [
        {
          "internalType": "address",
          "name": "spender",
          "type": "address"
        },
        {
          "internalType": "uint256",
          "name": "amount",
          "type": "uint256"
        }
      ],
      "name": "approve",
      "outputs": [
        {
          "internalType": "bool",
          "name": "",
          "type": "bool"
        }
      ],
      "stateMutability": "nonpayable",
      "type": "function"
    },
    {
      "inputs": [
        {
          "internalType": "address",
          "name": "account",
          "type": "address"
        }
      ],
      "name": "balanceOf",
      "outputs": [
        {
          "internalType": "uint256",
          "name": "",
          "type": "uint256"
        }
      ],
      "stateMutability": "view",
      "type": "function"
    },
    {
      "inputs": [],
      "name": "decimals",
      "outputs": [
        {
          "internalType": "uint8",
          "name": "",
          "type": "uint8"
        }
      ],
      "stateMutability": "view",
      "type": "function"
    },
    {
      "inputs": [
        {
          "internalType": "address",
          "name": "spender",
          "type": "address"
        },
        {
          "internalType": "uint256",
          "name": "subtractedValue",
          "type": "uint256"
        }
      ],
      "name": "decreaseAllowance",
      "outputs": [
        {
          "internalType": "bool",
          "name": "",
          "type": "bool"
        }
      ],
      "stateMutability": "nonpayable",
      "type": "function"
    },
    {
      "inputs": [
        {
          "internalType": "address",
          "name": "spender",
          "type": "address"
        },
        {
          "internalType": "uint256",
          "name": "addedValue",
          "type": "uint256"
        }
      ],
      "name": "increaseAllowance",
      "outputs": [
        {
          "internalType": "bool",
          "name": "",
          "type": "bool"
        }
      ],
      "stateMutability": "nonpayable",
      "type": "function"
    },
    {
      "inputs": [],
      "name": "name",
      "outputs": [
        {
          "internalType": "string",
          "name": "",
          "type": "string"
        }
      ],
      "stateMutability": "view",
      "type": "function"
    },
    {
      "inputs": [
        {
          "internalType": "address",
          "name": "owner",
          "type": "address"
        }
      ],
      "name": "nonces",
      "outputs": [
        {
          "internalType": "uint256",
          "name": "",
          "type": "uint256"
        }
      ],
      "stateMutability": "view",
      "type": "function"
    },
    {
      "inputs": [
        {
          "internalType": "address",
          "name": "owner",
          "type": "address"
        },
        {
          "internalType": "address",
          "name": "spender",
          "type": "address"
        },
        {
          "internalType": "uint256",
          "name": "value",
          "type": "uint256"
        },
        {
          "internalType": "uint256",
          "name": "deadline",
          "type": "uint256"
        },
        {
          "internalType": "uint8",
          "name": "v",
          "type": "uint8"
        },
        {
          "internalType": "bytes32",
          "name": "r",
          "type": "bytes32"
        },
        {
          "internalType": "bytes32",
          "name": "s",
          "type": "bytes32"
        }
      ],
      "name": "permit",
      "outputs": [],
      "stateMutability": "nonpayable",
      "type": "function"
    },
    {
      "inputs": [],
      "name": "symbol",
      "outputs": [
        {
          "internalType": "string",
          "name": "",
          "type": "string"
        }
      ],
      "stateMutability": "view",
      "type": "function"
    },
    {
      "inputs": [],
      "name": "totalSupply",
      "outputs": [
        {
          "internalType": "uint256",
          "name": "",
          "type": "uint256"
        }
      ],
      "stateMutability": "view",
      "type": "function"
    },
    {
      "inputs": [
        {
          "internalType": "address",
          "name": "to",
          "type": "address"
        },
        {
          "internalType": "uint256",
          "name": "amount",
          "type": "uint256"
        }
      ],
      "name": "transfer",
      "outputs": [
        {
          "internalType": "bool",
          "name": "",
          "type": "bool"
        }
      ],
      "stateMutability": "nonpayable",
      "type": "function"
    },
    {
      "inputs": [
        {
          "internalType": "address",
          "name": "from",
          "type": "address"
        },
        {
          "internalType": "address",
          "name": "to",
          "type": "address"
        },
        {
          "internalType": "uint256",
          "name": "amount",
          "type": "uint256"
        }
      ],
      "name": "transferFrom",
      "outputs": [
        {
          "internalType": "bool",
          "name": "",
          "type": "bool"
        }
      ],
      "stateMutability": "nonpayable",
      "type": "function"
    }
  ],
  "bytecode": "0x6101406040523480156200001257600080fd5b506040518060400160405280601a81526020017f41667465726d6174682049736c616e647320446f75626c6f6f6e000000000000815250806040518060400160405280600181526020017f31000000000000000000000000000000000000000000000000000000000000008152506040518060400160405280601a81526020017f41667465726d6174682049736c616e647320446f75626c6f6f6e0000000000008152506040518060400160405280600481526020017f4455425300000000000000000000000000000000000000000000000000000000815250816003908051906020019062000104929190620003da565b5080600490805190602001906200011d929190620003da565b50505060008280519060200120905060008280519060200120905060007f8b73c3c69bb8fe3d512ecc4cf759cc79239f7b179b0ffacaa9a75d522b39400f90508260e081815250508161010081815250504660a08181525050620001898184846200021b60201b60201c565b608081815250503073ffffffffffffffffffffffffffffffffffffffff1660c08173ffffffffffffffffffffffffffffffffffffffff1660601b815250508061012081815250505050505050506200021573afd4f8fa116f5d75debb1330969220dce3e0c751670de0b6b3a764000063d09dc300620002099190620005ee565b6200025760201b60201c565b62000754565b6000838383463060405160200162000238959493929190620004e4565b6040516020818303038152906040528051906020012090509392505050565b600073ffffffffffffffffffffffffffffffffffffffff168273ffffffffffffffffffffffffffffffffffffffff161415620002ca576040517f08c379a0000000000000000000000000000000000000000000000000000000008152600401620002c19062000541565b60405180910390fd5b620002de60008383620003d060201b60201c565b8060026000828254620002f2919062000591565b92505081905550806000808473ffffffffffffffffffffffffffffffffffffffff1673ffffffffffffffffffffffffffffffffffffffff168152602001908152602001600020600082825462000349919062000591565b925050819055508173ffffffffffffffffffffffffffffffffffffffff16600073ffffffffffffffffffffffffffffffffffffffff167fddf252ad1be2c89b69c2b068fc378daa952ba7f163c4a11628f55a4df523b3ef83604051620003b0919062000563565b60405180910390a3620003cc60008383620003d560201b60201c565b5050565b505050565b505050565b828054620003e89062000697565b90600052602060002090601f0160209004810192826200040c576000855562000458565b82601f106200042757805160ff191683800117855562000458565b8280016001018555821562000458579182015b82811115620004575782518255916020019190600101906200043a565b5b5090506200046791906200046b565b5090565b5b80821115620004865760008160009055506001016200046c565b5090565b62000495816200064f565b82525050565b620004a68162000663565b82525050565b6000620004bb601f8362000580565b9150620004c8826200072b565b602082019050919050565b620004de816200068d565b82525050565b600060a082019050620004fb60008301886200049b565b6200050a60208301876200049b565b6200051960408301866200049b565b620005286060830185620004d3565b6200053760808301846200048a565b9695505050505050565b600060208201905081810360008301526200055c81620004ac565b9050919050565b60006020820190506200057a6000830184620004d3565b92915050565b600082825260208201905092915050565b60006200059e826200068d565b9150620005ab836200068d565b9250827fffffffffffffffffffffffffffffffffffffffffffffffffffffffffffffffff03821115620005e357620005e2620006cd565b5b828201905092915050565b6000620005fb826200068d565b915062000608836200068d565b9250817fffffffffffffffffffffffffffffffffffffffffffffffffffffffffffffffff0483118215151615620006445762000643620006cd565b5b828202905092915050565b60006200065c826200066d565b9050919050565b6000819050919050565b600073ffffffffffffffffffffffffffffffffffffffff82169050919050565b6000819050919050565b60006002820490506001821680620006b057607f821691505b60208210811415620006c757620006c6620006fc565b5b50919050565b7f4e487b7100000000000000000000000000000000000000000000000000000000600052601160045260246000fd5b7f4e487b7100000000000000000000000000000000000000000000000000000000600052602260045260246000fd5b7f45524332303a206d696e7420746f20746865207a65726f206164647265737300600082015250565b60805160a05160c05160601c60e051610100516101205161216d620007a76000396000610dcb01526000610e0d01526000610dec01526000610d2101526000610d7701526000610da0015261216d6000f3fe608060405234801561001057600080fd5b50600436106100e05760003560e01c8063395093511161008757806339509351146101f957806370a08231146102295780637ecebe001461025957806395d89b4114610289578063a457c2d7146102a7578063a9059cbb146102d7578063d505accf14610307578063dd62ed3e14610323576100e0565b806306fdde03146100e557806307604b1a14610103578063095ea7b31461012157806318160ddd1461015157806323b872dd1461016f5780632ff2e9dc1461019f578063313ce567146101bd5780633644e515146101db575b600080fd5b6100ed610353565b6040516100fa91906119bb565b60405180910390f35b61010b6103e5565b6040516101189190611871565b60405180910390f35b61013b60048036038101906101369190611579565b6103fd565b604051610148919061188c565b60405180910390f35b610159610420565b6040516101669190611b7d565b60405180910390f35b6101896004803603810190610184919061148c565b61042a565b604051610196919061188c565b60405180910390f35b6101a7610459565b6040516101b49190611b7d565b60405180910390f35b6101c5610461565b6040516101d29190611b98565b60405180910390f35b6101e361046a565b6040516101f091906118a7565b60405180910390f35b610213600480360381019061020e9190611579565b610479565b604051610220919061188c565b60405180910390f35b610243600480360381019061023e9190611427565b6104b0565b6040516102509190611b7d565b60405180910390f35b610273600480360381019061026e9190611427565b6104f8565b6040516102809190611b7d565b60405180910390f35b610291610548565b60405161029e91906119bb565b60405180910390f35b6102c160048036038101906102bc9190611579565b6105da565b6040516102ce919061188c565b60405180910390f35b6102f160048036038101906102ec9190611579565b610651565b6040516102fe919061188c565b60405180910390f35b610321600480360381019061031c91906114db565b610674565b005b61033d60048036038101906103389190611450565b6107b6565b60405161034a9190611b7d565b60405180910390f35b60606003805461036290611cc2565b80601f016020809104026020016040519081016040528092919081815260200182805461038e90611cc2565b80156103db5780601f106103b0576101008083540402835291602001916103db565b820191906000526020600020905b8154815290600101906020018083116103be57829003601f168201915b5050505050905090565b73afd4f8fa116f5d75debb1330969220dce3e0c75181565b60008061040861083d565b9050610415818585610845565b600191505092915050565b6000600254905090565b60008061043561083d565b9050610442858285610a10565b61044d858585610a9c565b60019150509392505050565b63d09dc30081565b60006012905090565b6000610474610d1d565b905090565b60008061048461083d565b90506104a581858561049685896107b6565b6104a09190611bda565b610845565b600191505092915050565b60008060008373ffffffffffffffffffffffffffffffffffffffff1673ffffffffffffffffffffffffffffffffffffffff168152602001908152602001600020549050919050565b6000610541600560008473ffffffffffffffffffffffffffffffffffffffff1673ffffffffffffffffffffffffffffffffffffffff168152602001908152602001600020610e37565b9050919050565b60606004805461055790611cc2565b80601f016020809104026020016040519081016040528092919081815260200182805461058390611cc2565b80156105d05780601f106105a5576101008083540402835291602001916105d0565b820191906000526020600020905b8154815290600101906020018083116105b357829003601f168201915b5050505050905090565b6000806105e561083d565b905060006105f382866107b6565b905083811015610638576040517f08c379a000000000000000000000000000000000000000000000000000000000815260040161062f90611b5d565b60405180910390fd5b6106458286868403610845565b60019250505092915050565b60008061065c61083d565b9050610669818585610a9c565b600191505092915050565b834211156106b7576040517f08c379a00000000000000000000000000000000000000000000000000000000081526004016106ae90611a7d565b60405180910390fd5b60007f6e71edae12b1b97f4d1f60370fef10105fa2faae0126114a169c64845d6126c98888886106e68c610e45565b896040516020016106fc969594939291906118c2565b604051602081830303815290604052805190602001209050600061071f82610ea3565b9050600061072f82878787610ebd565b90508973ffffffffffffffffffffffffffffffffffffffff168173ffffffffffffffffffffffffffffffffffffffff161461079f576040517f08c379a000000000000000000000000000000000000000000000000000000000815260040161079690611afd565b60405180910390fd5b6107aa8a8a8a610845565b50505050505050505050565b6000600160008473ffffffffffffffffffffffffffffffffffffffff1673ffffffffffffffffffffffffffffffffffffffff16815260200190815260200160002060008373ffffffffffffffffffffffffffffffffffffffff1673ffffffffffffffffffffffffffffffffffffffff16815260200190815260200160002054905092915050565b600033905090565b600073ffffffffffffffffffffffffffffffffffffffff168373ffffffffffffffffffffffffffffffffffffffff1614156108b5576040517f08c379a00000000000000000000000000000000000000000000000000000000081526004016108ac90611b3d565b60405180910390fd5b600073ffffffffffffffffffffffffffffffffffffffff168273ffffffffffffffffffffffffffffffffffffffff161415610925576040517f08c379a000000000000000000000000000000000000000000000000000000000815260040161091c90611a3d565b60405180910390fd5b80600160008573ffffffffffffffffffffffffffffffffffffffff1673ffffffffffffffffffffffffffffffffffffffff16815260200190815260200160002060008473ffffffffffffffffffffffffffffffffffffffff1673ffffffffffffffffffffffffffffffffffffffff168152602001908152602001600020819055508173ffffffffffffffffffffffffffffffffffffffff168373ffffffffffffffffffffffffffffffffffffffff167f8c5be1e5ebec7d5bd14f71427d1e84f3dd0314c0f7b2291e5b200ac8c7c3b92583604051610a039190611b7d565b60405180910390a3505050565b6000610a1c84846107b6565b90507fffffffffffffffffffffffffffffffffffffffffffffffffffffffffffffffff8114610a965781811015610a88576040517f08c379a0000000000000000000000000000000000000000000000000000000008152600401610a7f90611a5d565b60405180910390fd5b610a958484848403610845565b5b50505050565b600073ffffffffffffffffffffffffffffffffffffffff168373ffffffffffffffffffffffffffffffffffffffff161415610b0c576040517f08c379a0000000000000000000000000000000000000000000000000000000008152600401610b0390611b1d565b60405180910390fd5b600073ffffffffffffffffffffffffffffffffffffffff168273ffffffffffffffffffffffffffffffffffffffff161415610b7c576040517f08c379a0000000000000000000000000000000000000000000000000000000008152600401610b73906119fd565b60405180910390fd5b610b87838383610ee8565b60008060008573ffffffffffffffffffffffffffffffffffffffff1673ffffffffffffffffffffffffffffffffffffffff16815260200190815260200160002054905081811015610c0d576040517f08c379a0000000000000000000000000000000000000000000000000000000008152600401610c0490611a9d565b60405180910390fd5b8181036000808673ffffffffffffffffffffffffffffffffffffffff1673ffffffffffffffffffffffffffffffffffffffff16815260200190815260200160002081905550816000808573ffffffffffffffffffffffffffffffffffffffff1673ffffffffffffffffffffffffffffffffffffffff1681526020019081526020016000206000828254610ca09190611bda565b925050819055508273ffffffffffffffffffffffffffffffffffffffff168473ffffffffffffffffffffffffffffffffffffffff167fddf252ad1be2c89b69c2b068fc378daa952ba7f163c4a11628f55a4df523b3ef84604051610d049190611b7d565b60405180910390a3610d17848484610eed565b50505050565b60007f000000000000000000000000000000000000000000000000000000000000000073ffffffffffffffffffffffffffffffffffffffff163073ffffffffffffffffffffffffffffffffffffffff16148015610d9957507f000000000000000000000000000000000000000000000000000000000000000046145b15610dc6577f00000000000000000000000000000000000000000000000000000000000000009050610e34565b610e317f00000000000000000000000000000000000000000000000000000000000000007f00000000000000000000000000000000000000000000000000000000000000007f0000000000000000000000000000000000000000000000000000000000000000610ef2565b90505b90565b600081600001549050919050565b600080600560008473ffffffffffffffffffffffffffffffffffffffff1673ffffffffffffffffffffffffffffffffffffffff1681526020019081526020016000209050610e9281610e37565b9150610e9d81610f2c565b50919050565b6000610eb6610eb0610d1d565b83610f42565b9050919050565b6000806000610ece87878787610f75565b91509150610edb81611082565b8192505050949350505050565b505050565b505050565b60008383834630604051602001610f0d959493929190611923565b6040516020818303038152906040528051906020012090509392505050565b6001816000016000828254019250508190555050565b60008282604051602001610f5792919061183a565b60405160208183030381529060405280519060200120905092915050565b6000807f7fffffffffffffffffffffffffffffff5d576e7357a4501ddfe92f46681b20a08360001c1115610fb0576000600391509150611079565b601b8560ff1614158015610fc85750601c8560ff1614155b15610fda576000600491509150611079565b600060018787878760405160008152602001604052604051610fff9493929190611976565b6020604051602081039080840390855afa158015611021573d6000803e3d6000fd5b505050602060405103519050600073ffffffffffffffffffffffffffffffffffffffff168173ffffffffffffffffffffffffffffffffffffffff16141561107057600060019250925050611079565b80600092509250505b94509492505050565b600060048111156110bc577f4e487b7100000000000000000000000000000000000000000000000000000000600052602160045260246000fd5b8160048111156110f5577f4e487b7100000000000000000000000000000000000000000000000000000000600052602160045260246000fd5b1415611100576113d0565b6001600481111561113a577f4e487b7100000000000000000000000000000000000000000000000000000000600052602160045260246000fd5b816004811115611173577f4e487b7100000000000000000000000000000000000000000000000000000000600052602160045260246000fd5b14156111b4576040517f08c379a00000000000000000000000000000000000000000000000000000000081526004016111ab906119dd565b60405180910390fd5b600260048111156111ee577f4e487b7100000000000000000000000000000000000000000000000000000000600052602160045260246000fd5b816004811115611227577f4e487b7100000000000000000000000000000000000000000000000000000000600052602160045260246000fd5b1415611268576040517f08c379a000000000000000000000000000000000000000000000000000000000815260040161125f90611a1d565b60405180910390fd5b600360048111156112a2577f4e487b7100000000000000000000000000000000000000000000000000000000600052602160045260246000fd5b8160048111156112db577f4e487b7100000000000000000000000000000000000000000000000000000000600052602160045260246000fd5b141561131c576040517f08c379a000000000000000000000000000000000000000000000000000000000815260040161131390611abd565b60405180910390fd5b600480811115611355577f4e487b7100000000000000000000000000000000000000000000000000000000600052602160045260246000fd5b81600481111561138e577f4e487b7100000000000000000000000000000000000000000000000000000000600052602160045260246000fd5b14156113cf576040517f08c379a00000000000000000000000000000000000000000000000000000000081526004016113c690611add565b60405180910390fd5b5b50565b6000813590506113e2816120db565b92915050565b6000813590506113f7816120f2565b92915050565b60008135905061140c81612109565b92915050565b60008135905061142181612120565b92915050565b60006020828403121561143957600080fd5b6000611447848285016113d3565b91505092915050565b6000806040838503121561146357600080fd5b6000611471858286016113d3565b9250506020611482858286016113d3565b9150509250929050565b6000806000606084860312156114a157600080fd5b60006114af868287016113d3565b93505060206114c0868287016113d3565b92505060406114d1868287016113fd565b9150509250925092565b600080600080600080600060e0888a0312156114f657600080fd5b60006115048a828b016113d3565b97505060206115158a828b016113d3565b96505060406115268a828b016113fd565b95505060606115378a828b016113fd565b94505060806115488a828b01611412565b93505060a06115598a828b016113e8565b92505060c061156a8a828b016113e8565b91505092959891949750929550565b6000806040838503121561158c57600080fd5b600061159a858286016113d3565b92505060206115ab858286016113fd565b9150509250929050565b6115be81611c30565b82525050565b6115cd81611c42565b82525050565b6115dc81611c4e565b82525050565b6115f36115ee82611c4e565b611cf4565b82525050565b600061160482611bb3565b61160e8185611bbe565b935061161e818560208601611c8f565b61162781611d5c565b840191505092915050565b600061163f601883611bbe565b915061164a82611d6d565b602082019050919050565b6000611662602383611bbe565b915061166d82611d96565b604082019050919050565b6000611685601f83611bbe565b915061169082611de5565b602082019050919050565b60006116a8602283611bbe565b91506116b382611e0e565b604082019050919050565b60006116cb600283611bcf565b91506116d682611e5d565b600282019050919050565b60006116ee601d83611bbe565b91506116f982611e86565b602082019050919050565b6000611711601d83611bbe565b915061171c82611eaf565b602082019050919050565b6000611734602683611bbe565b915061173f82611ed8565b604082019050919050565b6000611757602283611bbe565b915061176282611f27565b604082019050919050565b600061177a602283611bbe565b915061178582611f76565b604082019050919050565b600061179d601e83611bbe565b91506117a882611fc5565b602082019050919050565b60006117c0602583611bbe565b91506117cb82611fee565b604082019050919050565b60006117e3602483611bbe565b91506117ee8261203d565b604082019050919050565b6000611806602583611bbe565b91506118118261208c565b604082019050919050565b61182581611c78565b82525050565b61183481611c82565b82525050565b6000611845826116be565b915061185182856115e2565b60208201915061186182846115e2565b6020820191508190509392505050565b600060208201905061188660008301846115b5565b92915050565b60006020820190506118a160008301846115c4565b92915050565b60006020820190506118bc60008301846115d3565b92915050565b600060c0820190506118d760008301896115d3565b6118e460208301886115b5565b6118f160408301876115b5565b6118fe606083018661181c565b61190b608083018561181c565b61191860a083018461181c565b979650505050505050565b600060a08201905061193860008301886115d3565b61194560208301876115d3565b61195260408301866115d3565b61195f606083018561181c565b61196c60808301846115b5565b9695505050505050565b600060808201905061198b60008301876115d3565b611998602083018661182b565b6119a560408301856115d3565b6119b260608301846115d3565b95945050505050565b600060208201905081810360008301526119d581846115f9565b905092915050565b600060208201905081810360008301526119f681611632565b9050919050565b60006020820190508181036000830152611a1681611655565b9050919050565b60006020820190508181036000830152611a3681611678565b9050919050565b60006020820190508181036000830152611a568161169b565b9050919050565b60006020820190508181036000830152611a76816116e1565b9050919050565b60006020820190508181036000830152611a9681611704565b9050919050565b60006020820190508181036000830152611ab681611727565b9050919050565b60006020820190508181036000830152611ad68161174a565b9050919050565b60006020820190508181036000830152611af68161176d565b9050919050565b60006020820190508181036000830152611b1681611790565b9050919050565b60006020820190508181036000830152611b36816117b3565b9050919050565b60006020820190508181036000830152611b56816117d6565b9050919050565b60006020820190508181036000830152611b76816117f9565b9050919050565b6000602082019050611b92600083018461181c565b92915050565b6000602082019050611bad600083018461182b565b92915050565b600081519050919050565b600082825260208201905092915050565b600081905092915050565b6000611be582611c78565b9150611bf083611c78565b9250827fffffffffffffffffffffffffffffffffffffffffffffffffffffffffffffffff03821115611c2557611c24611cfe565b5b828201905092915050565b6000611c3b82611c58565b9050919050565b60008115159050919050565b6000819050919050565b600073ffffffffffffffffffffffffffffffffffffffff82169050919050565b6000819050919050565b600060ff82169050919050565b60005b83811015611cad578082015181840152602081019050611c92565b83811115611cbc576000848401525b50505050565b60006002820490506001821680611cda57607f821691505b60208210811415611cee57611ced611d2d565b5b50919050565b6000819050919050565b7f4e487b7100000000000000000000000000000000000000000000000000000000600052601160045260246000fd5b7f4e487b7100000000000000000000000000000000000000000000000000000000600052602260045260246000fd5b6000601f19601f8301169050919050565b7f45434453413a20696e76616c6964207369676e61747572650000000000000000600082015250565b7f45524332303a207472616e7366657220746f20746865207a65726f206164647260008201527f6573730000000000000000000000000000000000000000000000000000000000602082015250565b7f45434453413a20696e76616c6964207369676e6174757265206c656e67746800600082015250565b7f45524332303a20617070726f766520746f20746865207a65726f20616464726560008201527f7373000000000000000000000000000000000000000000000000000000000000602082015250565b7f1901000000000000000000000000000000000000000000000000000000000000600082015250565b7f45524332303a20696e73756666696369656e7420616c6c6f77616e6365000000600082015250565b7f45524332305065726d69743a206578706972656420646561646c696e65000000600082015250565b7f45524332303a207472616e7366657220616d6f756e742065786365656473206260008201527f616c616e63650000000000000000000000000000000000000000000000000000602082015250565b7f45434453413a20696e76616c6964207369676e6174757265202773272076616c60008201527f7565000000000000000000000000000000000000000000000000000000000000602082015250565b7f45434453413a20696e76616c6964207369676e6174757265202776272076616c60008201527f7565000000000000000000000000000000000000000000000000000000000000602082015250565b7f45524332305065726d69743a20696e76616c6964207369676e61747572650000600082015250565b7f45524332303a207472616e736665722066726f6d20746865207a65726f20616460008201527f6472657373000000000000000000000000000000000000000000000000000000602082015250565b7f45524332303a20617070726f76652066726f6d20746865207a65726f2061646460008201527f7265737300000000000000000000000000000000000000000000000000000000602082015250565b7f45524332303a2064656372656173656420616c6c6f77616e63652062656c6f7760008201527f207a65726f000000000000000000000000000000000000000000000000000000602082015250565b6120e481611c30565b81146120ef57600080fd5b50565b6120fb81611c4e565b811461210657600080fd5b50565b61211281611c78565b811461211d57600080fd5b50565b61212981611c82565b811461213457600080fd5b5056fea26469706673582212209d7d01012e2ac089059201cd46e31d10b01d888fd74b225efd86a33ce4fa134364736f6c63430008040033",
  "linkReferences": {},
  "deployedLinkReferences": {}
}